{"contracts/InfinitoToken.sol":{"InfinitoToken":{"abi":[{"inputs":[{"internalType":"address","name":"_treasuryAddress","type":"address"},{"internalType":"address","name":"_padresAddress","type":"address"},{"internalType":"address","name":"_jokerAddress","type":"address"}],"stateMutability":"nonpayable","type":"constructor"},{"inputs":[],"name":"AccessControlBadConfirmation","type":"error"},{"inputs":[{"internalType":"address","name":"account","type":"address"},{"internalType":"bytes32","name":"neededRole","type":"bytes32"}],"name":"AccessControlUnauthorizedAccount","type":"error"},{"inputs":[],"name":"ECDSAInvalidSignature","type":"error"},{"inputs":[{"internalType":"uint256","name":"length","type":"uint256"}],"name":"ECDSAInvalidSignatureLength","type":"error"},{"inputs":[{"internalType":"bytes32","name":"s","type":"bytes32"}],"name":"ECDSAInvalidSignatureS","type":"error"},{"inputs":[{"internalType":"address","name":"spender","type":"address"},{"internalType":"uint256","name":"allowance","type":"uint256"},{"internalType":"uint256","name":"needed","type":"uint256"}],"name":"ERC20InsufficientAllowance","type":"error"},{"inputs":[{"internalType":"address","name":"sender","type":"address"},{"internalType":"uint256","name":"balance","type":"uint256"},{"internalType":"uint256","name":"needed","type":"uint256"}],"name":"ERC20InsufficientBalance","type":"error"},{"inputs":[{"internalType":"address","name":"approver","type":"address"}],"name":"ERC20InvalidApprover","type":"error"},{"inputs":[{"internalType":"address","name":"receiver","type":"address"}],"name":"ERC20InvalidReceiver","type":"error"},{"inputs":[{"internalType":"address","name":"sender","type":"address"}],"name":"ERC20InvalidSender","type":"error"},{"inputs":[{"internalType":"address","name":"spender","type":"address"}],"name":"ERC20InvalidSpender","type":"error"},{"inputs":[{"internalType":"uint256","name":"deadline","type":"uint256"}],"name":"ERC2612ExpiredSignature","type":"error"},{"inputs":[{"internalType":"address","name":"signer","type":"address"},{"internalType":"address","name":"owner","type":"address"}],"name":"ERC2612InvalidSigner","type":"error"},{"inputs":[],"name":"EnforcedPause","type":"error"},{"inputs":[],"name":"ExpectedPause","type":"error"},{"inputs":[{"internalType":"address","name":"account","type":"address"},{"internalType":"uint256","name":"currentNonce","type":"uint256"}],"name":"InvalidAccountNonce","type":"error"},{"inputs":[],"name":"InvalidShortString","type":"error"},{"inputs":[],"name":"ReentrancyGuardReentrantCall","type":"error"},{"inputs":[{"internalType":"string","name":"str","type":"string"}],"name":"StringTooLong","type":"error"},{"anonymous":false,"inputs":[{"indexed":true,"internalType":"address","name":"owner","type":"address"},{"indexed":true,"internalType":"address","name":"spender","type":"address"},{"indexed":false,"internalType":"uint256","name":"value","type":"uint256"}],"name":"Approval","type":"event"},{"anonymous":false,"inputs":[],"name":"EIP712DomainChanged","type":"event"},{"anonymous":false,"inputs":[{"indexed":false,"internalType":"address","name":"account","type":"address"}],"name":"Paused","type":"event"},{"anonymous":false,"inputs":[{"indexed":true,"internalType":"bytes32","name":"role","type":"bytes32"},{"indexed":true,"internalType":"bytes32","name":"previousAdminRole","type":"bytes32"},{"indexed":true,"internalType":"bytes32","name":"newAdminRole","type":"bytes32"}],"name":"RoleAdminChanged","type":"event"},{"anonymous":false,"inputs":[{"indexed":true,"internalType":"bytes32","name":"role","type":"bytes32"},{"indexed":true,"internalType":"address","name":"account","type":"address"},{"indexed":true,"internalType":"address","name":"sender","type":"address"}],"name":"RoleGranted","type":"event"},{"anonymous":false,"inputs":[{"indexed":true,"internalType":"bytes32","name":"role","type":"bytes32"},{"indexed":true,"internalType":"address","name":"account","type":"address"},{"indexed":true,"internalType":"address","name":"sender","type":"address"}],"name":"RoleRevoked","type":"event"},{"anonymous":false,"inputs":[{"indexed":true,"internalType":"address","name":"from","type":"address"},{"indexed":false,"internalType":"uint256","name":"amount","type":"uint256"},{"indexed":true,"internalType":"address","name":"treasury","type":"address"}],"name":"TaxCollected","type":"event"},{"anonymous":false,"inputs":[{"indexed":true,"internalType":"address","name":"account","type":"address"},{"indexed":false,"internalType":"bool","name":"exempt","type":"bool"}],"name":"TaxExemptionUpdated","type":"event"},{"anonymous":false,"inputs":[{"indexed":false,"internalType":"uint256","name":"newTaxBps","type":"uint256"}],"name":"TaxUpdated","type":"event"},{"anonymous":false,"inputs":[{"indexed":true,"internalType":"address","name":"from","type":"address"},{"indexed":false,"internalType":"uint256","name":"amount","type":"uint256"}],"name":"TokensBurned","type":"event"},{"anonymous":false,"inputs":[{"indexed":true,"internalType":"address","name":"to","type":"address"},{"indexed":false,"internalType":"uint256","name":"amount","type":"uint256"}],"name":"TokensMinted","type":"event"},{"anonymous":false,"inputs":[{"indexed":true,"internalType":"address","name":"from","type":"address"},{"indexed":true,"internalType":"address","name":"to","type":"address"},{"indexed":false,"internalType":"uint256","name":"value","type":"uint256"}],"name":"Transfer","type":"event"},{"anonymous":false,"inputs":[{"indexed":true,"internalType":"address","name":"newTreasury","type":"address"}],"name":"TreasuryUpdated","type":"event"},{"anonymous":false,"inputs":[{"indexed":false,"internalType":"address","name":"account","type":"address"}],"name":"Unpaused","type":"event"},{"inputs":[],"name":"DEFAULT_ADMIN_ROLE","outputs":[{"internalType":"bytes32","name":"","type":"bytes32"}],"stateMutability":"view","type":"function"},{"inputs":[],"name":"DOMAIN_SEPARATOR","outputs":[{"internalType":"bytes32","name":"","type":"bytes32"}],"stateMutability":"view","type":"function"},{"inputs":[],"name":"MAX_TAX_BPS","outputs":[{"internalType":"uint256","name":"","type":"uint256"}],"stateMutability":"view","type":"function"},{"inputs":[],"name":"MINTER_ROLE","outputs":[{"internalType":"bytes32","name":"","type":"bytes32"}],"stateMutability":"view","type":"function"},{"inputs":[],"name":"PAUSER_ROLE","outputs":[{"internalType":"bytes32","name":"","type":"bytes32"}],"stateMutability":"view","type":"function"},{"inputs":[],"name":"TAX_BPS","outputs":[{"internalType":"uint256","name":"","type":"uint256"}],"stateMutability":"view","type":"function"},{"inputs":[],"name":"TAX_MANAGER_ROLE","outputs":[{"internalType":"bytes32","name":"","type":"bytes32"}],"stateMutability":"view","type":"function"},{"inputs":[],"name":"TOTAL_SUPPLY","outputs":[{"internalType":"uint256","name":"","type":"uint256"}],"stateMutability":"view","type":"function"},{"inputs":[],"name":"TREASURY_ROLE","outputs":[{"internalType":"bytes32","name":"","type":"bytes32"}],"stateMutability":"view","type":"function"},{"inputs":[{"internalType":"address","name":"owner","type":"address"},{"internalType":"address","name":"spender","type":"address"}],"name":"allowance","outputs":[{"internalType":"uint256","name":"","type":"uint256"}],"stateMutability":"view","type":"function"},{"inputs":[{"internalType":"address","name":"spender","type":"address"},{"internalType":"uint256","name":"value","type":"uint256"}],"name":"approve","outputs":[{"internalType":"bool","name":"","type":"bool"}],"stateMutability":"nonpayable","type":"function"},{"inputs":[{"internalType":"address","name":"account","type":"address"}],"name":"balanceOf","outputs":[{"internalType":"uint256","name":"","type":"uint256"}],"stateMutability":"view","type":"function"},{"inputs":[{"internalType":"uint256","name":"value","type":"uint256"}],"name":"burn","outputs":[],"stateMutability":"nonpayable","type":"function"},{"inputs":[{"internalType":"address","name":"account","type":"address"},{"internalType":"uint256","name":"value","type":"uint256"}],"name":"burnFrom","outputs":[],"stateMutability":"nonpayable","type":"function"},{"inputs":[{"internalType":"uint256","name":"amount","type":"uint256"}],"name":"burnFromPool","outputs":[],"stateMutability":"nonpayable","type":"function"},{"inputs":[],"name":"decimals","outputs":[{"internalType":"uint8","name":"","type":"uint8"}],"stateMutability":"view","type":"function"},{"inputs":[],"name":"domainSeparator","outputs":[{"internalType":"bytes32","name":"","type":"bytes32"}],"stateMutability":"view","type":"function"},{"inputs":[],"name":"eip712Domain","outputs":[{"internalType":"bytes1","name":"fields","type":"bytes1"},{"internalType":"string","name":"name","type":"string"},{"internalType":"string","name":"version","type":"string"},{"internalType":"uint256","name":"chainId","type":"uint256"},{"internalType":"address","name":"verifyingContract","type":"address"},{"internalType":"bytes32","name":"salt","type":"bytes32"},{"internalType":"uint256[]","name":"extensions","type":"uint256[]"}],"stateMutability":"view","type":"function"},{"inputs":[{"internalType":"bytes32","name":"role","type":"bytes32"}],"name":"getRoleAdmin","outputs":[{"internalType":"bytes32","name":"","type":"bytes32"}],"stateMutability":"view","type":"function"},{"inputs":[{"internalType":"bytes32","name":"role","type":"bytes32"},{"internalType":"address","name":"account","type":"address"}],"name":"grantRole","outputs":[],"stateMutability":"nonpayable","type":"function"},{"inputs":[{"internalType":"bytes32","name":"role","type":"bytes32"},{"internalType":"address","name":"account","type":"address"}],"name":"hasRole","outputs":[{"internalType":"bool","name":"","type":"bool"}],"stateMutability":"view","type":"function"},{"inputs":[{"internalType":"address","name":"","type":"address"}],"name":"isExemptFromTax","outputs":[{"internalType":"bool","name":"","type":"bool"}],"stateMutability":"view","type":"function"},{"inputs":[{"internalType":"address","name":"to","type":"address"},{"internalType":"uint256","name":"amount","type":"uint256"}],"name":"mintTokens","outputs":[],"stateMutability":"nonpayable","type":"function"},{"inputs":[],"name":"name","outputs":[{"internalType":"string","name":"","type":"string"}],"stateMutability":"view","type":"function"},{"inputs":[{"internalType":"address","name":"owner","type":"address"}],"name":"nonces","outputs":[{"internalType":"uint256","name":"","type":"uint256"}],"stateMutability":"view","type":"function"},{"inputs":[],"name":"pause","outputs":[],"stateMutability":"nonpayable","type":"function"},{"inputs":[],"name":"paused","outputs":[{"internalType":"bool","name":"","type":"bool"}],"stateMutability":"view","type":"function"},{"inputs":[{"internalType":"address","name":"owner","type":"address"},{"internalType":"address","name":"spender","type":"address"},{"internalType":"uint256","name":"value","type":"uint256"},{"internalType":"uint256","name":"deadline","type":"uint256"},{"internalType":"uint8","name":"v","type":"uint8"},{"internalType":"bytes32","name":"r","type":"bytes32"},{"internalType":"bytes32","name":"s","type":"bytes32"}],"name":"permit","outputs":[],"stateMutability":"nonpayable","type":"function"},{"inputs":[{"internalType":"bytes32","name":"role","type":"bytes32"},{"internalType":"address","name":"callerConfirmation","type":"address"}],"name":"renounceRole","outputs":[],"stateMutability":"nonpayable","type":"function"},{"inputs":[{"internalType":"bytes32","name":"role","type":"bytes32"},{"internalType":"address","name":"account","type":"address"}],"name":"revokeRole","outputs":[],"stateMutability":"nonpayable","type":"function"},{"inputs":[{"internalType":"address","name":"account","type":"address"},{"internalType":"bool","name":"exempt","type":"bool"}],"name":"setTaxExemption","outputs":[],"stateMutability":"nonpayable","type":"function"},{"inputs":[{"internalType":"bytes4","name":"interfaceId","type":"bytes4"}],"name":"supportsInterface","outputs":[{"internalType":"bool","name":"","type":"bool"}],"stateMutability":"view","type":"function"},{"inputs":[],"name":"symbol","outputs":[{"internalType":"string","name":"","type":"string"}],"stateMutability":"view","type":"function"},{"inputs":[],"name":"taxActive","outputs":[{"internalType":"bool","name":"","type":"bool"}],"stateMutability":"view","type":"function"},{"inputs":[],"name":"taxBps","outputs":[{"internalType":"uint256","name":"","type":"uint256"}],"stateMutability":"view","type":"function"},{"inputs":[],"name":"toggleTax","outputs":[],"stateMutability":"nonpayable","type":"function"},{"inputs":[],"name":"totalSupply","outputs":[{"internalType":"uint256","name":"","type":"uint256"}],"stateMutability":"view","type":"function"},{"inputs":[{"internalType":"address","name":"to","type":"address"},{"internalType":"uint256","name":"value","type":"uint256"}],"name":"transfer","outputs":[{"internalType":"bool","name":"","type":"bool"}],"stateMutability":"nonpayable","type":"function"},{"inputs":[{"internalType":"address","name":"from","type":"address"},{"internalType":"address","name":"to","type":"address"},{"internalType":"uint256","name":"value","type":"uint256"}],"name":"transferFrom","outputs":[{"internalType":"bool","name":"","type":"bool"}],"stateMutability":"nonpayable","type":"function"},{"inputs":[],"name":"treasuryAddress","outputs":[{"internalType":"address","name":"","type":"address"}],"stateMutability":"view","type":"function"},{"inputs":[],"name":"unpause","outputs":[],"stateMutability":"nonpayable","type":"function"},{"inputs":[{"internalType":"uint256","name":"_newTaxBps","type":"uint256"}],"name":"updateTax","outputs":[],"stateMutability":"nonpayable","type":"function"},{"inputs":[{"internalType":"address","name":"_newTreasury","type":"address"}],"name":"updateTreasury","outputs":[],"stateMutability":"nonpayable","type":"function"}],"evm":{"bytecode":{"linkReferences":{},"object":"61016060405260c8600b55600c805460ff1916600117905534801562000023575f80fd5b50604051620029703803806200297083398101604081905262000046916200096d565b6040518060400160405280600e81526020016d24b73334b734ba37902a37b5b2b760911b81525080604051806040016040528060018152602001603160f81b8152506040518060400160405280600e81526020016d24b73334b734ba37902a37b5b2b760911b81525060405180604001604052806002815260200161544960f01b8152508160039081620000db919062000a4a565b506004620000ea828262000a4a565b50620000fc91508390506006620004e0565b610120526200010d816007620004e0565b61014052815160208084019190912060e052815190820120610100524660a0526200019a60e05161010051604080517f8b73c3c69bb8fe3d512ecc4cf759cc79239f7b179b0ffacaa9a75d522b39400f60208201529081019290925260608201524660808201523060a08201525f9060c00160405160208183030381529060405280519060200120905090565b60805250503060c0525060017f9b779b17422d0df92223018b32b4d1fa46e071723d6817e2486d003becc55f00556001600160a01b038316620002245760405162461bcd60e51b815260206004820152601760248201527f54726561737572792063616e6e6f74206265207a65726f00000000000000000060448201526064015b60405180910390fd5b6001600160a01b0382166200027c5760405162461bcd60e51b815260206004820152601560248201527f5061647265732063616e6e6f74206265207a65726f000000000000000000000060448201526064016200021b565b6001600160a01b038116620002d45760405162461bcd60e51b815260206004820152601460248201527f4a6f6b65722063616e6e6f74206265207a65726f00000000000000000000000060448201526064016200021b565b620002e05f8262000518565b506200030d7f9f2df0fed2c77648de5860a4cc508cd0818c85b8b8a1ab4ceeef8d981c8956a68262000518565b506200033a7f65d7a28e3265b37a6474929f336521b332c1681b933f6cb9f3376673440d862a8262000518565b50620003677f30f4f48440c1ad721c73a3b5549aa3db7105f00012df64020e3a66b689c0e70b8262000518565b50620003947fe1dcbdb91df27212a29bc27177c840cf2f819ecf2187432e1fac86c2dd5dfca98462000518565b50600a80546001600160a01b0319166001600160a01b038581169182179092555f908152600d6020526040808220805460ff19908116600190811790925593851683529120805490921617905562000411826064620003ff69d3c21bcecceda1000000603362000b2a565b6200040b919062000b44565b620005c7565b6001600160a01b0382165f805160206200295083398151915260646200044369d3c21bcecceda1000000603362000b2a565b6200044f919062000b44565b60405190815260200160405180910390a26200047e816064620003ff69d3c21bcecceda1000000602362000b2a565b6001600160a01b0381165f80516020620029508339815191526064620004b069d3c21bcecceda1000000602362000b2a565b620004bc919062000b44565b60405190815260200160405180910390a2620004d762000603565b50505062000c02565b5f602083511015620004ff57620004f78362000660565b905062000512565b816200050c848262000a4a565b5060ff90505b92915050565b5f8281526009602090815260408083206001600160a01b038516845290915281205460ff16620005bf575f8381526009602090815260408083206001600160a01b03861684529091529020805460ff19166001179055620005763390565b6001600160a01b0316826001600160a01b0316847f2f8788117e7eff1d82e926ec794901d17c78024a50270940304540a733656f0d60405160405180910390a450600162000512565b505f62000512565b6001600160a01b038216620005f25760405163ec442f0560e01b81525f60048201526024016200021b565b620005ff5f8383620006a2565b5050565b6200060d620007ea565b6005805460ff191660011790557f62e78cea01bee320cd4e420270b5ea74000d11b0c9f74754ebdbfc544b05a258620006433390565b6040516001600160a01b03909116815260200160405180910390a1565b5f80829050601f815111156200068d578260405163305a27a960e01b81526004016200021b919062000b64565b80516200069a8262000bb2565b179392505050565b620006ac620007ea565b600c5460ff168015620006c757506001600160a01b03831615155b8015620006dc57506001600160a01b03821615155b80156200070157506001600160a01b0383165f908152600d602052604090205460ff16155b80156200072657506001600160a01b0382165f908152600d602052604090205460ff16155b15620007d8575f612710600b548362000740919062000b2a565b6200074c919062000b44565b90505f6200075b828462000bd6565b90508115620007c457600a546200077e9086906001600160a01b03168462000811565b600a546040518381526001600160a01b03918216918716907fda0fa25c56de3e79f428c5b2eb506efd2656c74122c598d4274edfb9ceda33e89060200160405180910390a35b620007d185858362000811565b5050505050565b620007e583838362000811565b505050565b60055460ff16156200080f5760405163d93c066560e01b815260040160405180910390fd5b565b6200081b620007ea565b620007e58383836001600160a01b03831662000850578060025f82825462000844919062000bec565b90915550620008c29050565b6001600160a01b0383165f9081526020819052604090205481811015620008a45760405163391434e360e21b81526001600160a01b038516600482015260248101829052604481018390526064016200021b565b6001600160a01b0384165f9081526020819052604090209082900390555b6001600160a01b038216620008e057600280548290039055620008fe565b6001600160a01b0382165f9081526020819052604090208054820190555b816001600160a01b0316836001600160a01b03167fddf252ad1be2c89b69c2b068fc378daa952ba7f163c4a11628f55a4df523b3ef836040516200094491815260200190565b60405180910390a3505050565b80516001600160a01b038116811462000968575f80fd5b919050565b5f805f6060848603121562000980575f80fd5b6200098b8462000951565b92506200099b6020850162000951565b9150620009ab6040850162000951565b90509250925092565b634e487b7160e01b5f52604160045260245ffd5b600181811c90821680620009dd57607f821691505b602082108103620009fc57634e487b7160e01b5f52602260045260245ffd5b50919050565b601f821115620007e557805f5260205f20601f840160051c8101602085101562000a295750805b601f840160051c820191505b81811015620007d1575f815560010162000a35565b81516001600160401b0381111562000a665762000a66620009b4565b62000a7e8162000a778454620009c8565b8462000a02565b602080601f83116001811462000ab4575f841562000a9c5750858301515b5f19600386901b1c1916600185901b17855562000b0e565b5f85815260208120601f198616915b8281101562000ae45788860151825594840194600190910190840162000ac3565b508582101562000b0257878501515f19600388901b60f8161c191681555b505060018460011b0185555b505050505050565b634e487b7160e01b5f52601160045260245ffd5b808202811582820484141762000512576200051262000b16565b5f8262000b5f57634e487b7160e01b5f52601260045260245ffd5b500490565b5f602080835283518060208501525f5b8181101562000b925785810183015185820160400152820162000b74565b505f604082860101526040601f19601f8301168501019250505092915050565b80516020808301519190811015620009fc575f1960209190910360031b1b16919050565b8181038181111562000512576200051262000b16565b8082018082111562000512576200051262000b16565b60805160a05160c05160e051610100516101205161014051611cfc62000c545f395f61123101525f61120401525f61106201525f61103a01525f610f9501525f610fbf01525f610fe90152611cfc5ff3fe608060405234801561000f575f80fd5b5060043610610260575f3560e01c80637f51bb1f1161014b578063c5f956af116100bf578063d539139311610084578063d53913931461052d578063d547741f14610554578063dd62ed3e14610567578063e63ab1e91461059f578063f0dda65c146105c6578063f698da2514610352575f80fd5b8063c5f956af146104a8578063cca0feb6146104d3578063d11a57ec146104e6578063d4dc00701461050d578063d505accf1461051a575f80fd5b806391d148541161011057806391d148541461044c57806395d89b411461045f578063967a2a7014610467578063a217fddf1461047b578063a9059cbb14610482578063b64e3c7414610495575f80fd5b80637f51bb1f146103f25780638456cb591461040557806384b0196e1461040d57806387ed238a14610428578063902d55a51461043b575f80fd5b8063313ce567116101e257806342966c68116101a757806342966c681461037e5780635c975abb1461039157806368f4a7861461039c57806370a08231146103a457806379cc6790146103cc5780637ecebe00146103df575f80fd5b8063313ce567146103435780633644e5151461035257806336568abe1461035a5780633eacd2f81461036d5780633f4ba83a14610376575f80fd5b806318160ddd1161022857806318160ddd146102e057806323b872dd146102f2578063248a9ca3146103055780632c597de9146103275780632f2ff15d14610330575f80fd5b806301ffc9a714610264578063060e78441461028c57806306fdde03146102ae578063095ea7b3146102c357806310bf6029146102d6575b5f80fd5b61027761027236600461192c565b6105d9565b60405190151581526020015b60405180910390f35b61027761029a366004611975565b600d6020525f908152604090205460ff1681565b6102b661060f565b60405161028391906119d1565b6102776102d13660046119e3565b61069f565b6102de6106b6565b005b6002545b604051908152602001610283565b610277610300366004611a0b565b6106e2565b6102e4610313366004611a44565b5f9081526009602052604090206001015490565b6102e46101f481565b6102de61033e366004611a5b565b610705565b60405160128152602001610283565b6102e461072f565b6102de610368366004611a5b565b61073d565b6102e4600b5481565b6102de610775565b6102de61038c366004611a44565b6107aa565b60055460ff16610277565b6102e460c881565b6102e46103b2366004611975565b6001600160a01b03165f9081526020819052604090205490565b6102de6103da3660046119e3565b6107b4565b6102e46103ed366004611975565b6107cd565b6102de610400366004611975565b6107d7565b6102de6108a6565b6104156108d8565b6040516102839796959493929190611a85565b6102de610436366004611a44565b61091a565b6102e469d3c21bcecceda100000081565b61027761045a366004611a5b565b6109de565b6102b6610a08565b6102e45f80516020611ca783398151915281565b6102e45f81565b6102776104903660046119e3565b610a17565b6102de6104a3366004611b1c565b610a24565b600a546104bb906001600160a01b031681565b6040516001600160a01b039091168152602001610283565b6102de6104e1366004611a44565b610a9b565b6102e47fe1dcbdb91df27212a29bc27177c840cf2f819ecf2187432e1fac86c2dd5dfca981565b600c546102779060ff1681565b6102de610528366004611b55565b610b36565b6102e47f9f2df0fed2c77648de5860a4cc508cd0818c85b8b8a1ab4ceeef8d981c8956a681565b6102de610562366004611a5b565b610c6c565b6102e4610575366004611bc2565b6001600160a01b039182165f90815260016020908152604080832093909416825291909152205490565b6102e47f65d7a28e3265b37a6474929f336521b332c1681b933f6cb9f3376673440d862a81565b6102de6105d43660046119e3565b610c90565b5f6001600160e01b03198216637965db0b60e01b148061060957506301ffc9a760e01b6001600160e01b03198316145b92915050565b60606003805461061e90611bea565b80601f016020809104026020016040519081016040528092919081815260200182805461064a90611bea565b80156106955780601f1061066c57610100808354040283529160200191610695565b820191905f5260205f20905b81548152906001019060200180831161067857829003601f168201915b5050505050905090565b5f336106ac818585610e0e565b5060019392505050565b5f80516020611ca78339815191526106cd81610e1b565b50600c805460ff19811660ff90911615179055565b5f336106ef858285610e25565b6106fa858585610e9b565b506001949350505050565b5f8281526009602052604090206001015461071f81610e1b565b6107298383610ef8565b50505050565b5f610738610f89565b905090565b6001600160a01b03811633146107665760405163334bd91960e11b815260040160405180910390fd5b61077082826110b2565b505050565b7f65d7a28e3265b37a6474929f336521b332c1681b933f6cb9f3376673440d862a61079f81610e1b565b6107a761111d565b50565b6107a7338261116f565b6107bf823383610e25565b6107c9828261116f565b5050565b5f610609826111a3565b7fe1dcbdb91df27212a29bc27177c840cf2f819ecf2187432e1fac86c2dd5dfca961080181610e1b565b6001600160a01b03821661085c5760405162461bcd60e51b815260206004820152601760248201527f54726561737572792063616e6e6f74206265207a65726f00000000000000000060448201526064015b60405180910390fd5b600a80546001600160a01b0319166001600160a01b0384169081179091556040517f7dae230f18360d76a040c81f050aa14eb9d6dc7901b20fc5d855e2a20fe814d1905f90a25050565b7f65d7a28e3265b37a6474929f336521b332c1681b933f6cb9f3376673440d862a6108d081610e1b565b6107a76111c0565b5f6060805f805f60606108e96111fd565b6108f161122a565b604080515f80825260208201909252600f60f81b9b939a50919850469750309650945092509050565b7fe1dcbdb91df27212a29bc27177c840cf2f819ecf2187432e1fac86c2dd5dfca961094481610e1b565b61094c611257565b5f821161099b5760405162461bcd60e51b815260206004820152601d60248201527f416d6f756e74206d7573742062652067726561746572207468616e20300000006044820152606401610853565b6109a5338361116f565b60405182815233907ffd38818f5291bf0bb3a2a48aadc06ba8757865d1dabd804585338aab3009dcb69060200160405180910390a25050565b5f9182526009602090815260408084206001600160a01b0393909316845291905290205460ff1690565b60606004805461061e90611bea565b5f336106ac818585610e9b565b5f80516020611ca7833981519152610a3b81610e1b565b6001600160a01b0383165f818152600d6020908152604091829020805460ff191686151590811790915591519182527f36ee46fa09c2419f7bcf8135c2bdd56bc882be141cb075961717003bed74367d91015b60405180910390a2505050565b5f80516020611ca7833981519152610ab281610e1b565b6101f4821115610afa5760405162461bcd60e51b81526020600482015260136024820152725461782065786365656473206d6178696d756d60681b6044820152606401610853565b600b8290556040518281527f35ad15e7f5e4a16b548e8916bd02c51847dde8d106f334b4edaaacf140e43c919060200160405180910390a15050565b83421115610b5a5760405163313c898160e11b815260048101859052602401610853565b5f7f6e71edae12b1b97f4d1f60370fef10105fa2faae0126114a169c64845d6126c9888888610ba58c6001600160a01b03165f90815260086020526040902080546001810190915590565b6040805160208101969096526001600160a01b0394851690860152929091166060840152608083015260a082015260c0810186905260e0016040516020818303038152906040528051906020012090505f610bff8261127d565b90505f610c0e828787876112a9565b9050896001600160a01b0316816001600160a01b031614610c55576040516325c0072360e11b81526001600160a01b0380831660048301528b166024820152604401610853565b610c608a8a8a610e0e565b50505050505050505050565b5f82815260096020526040902060010154610c8681610e1b565b61072983836110b2565b7f9f2df0fed2c77648de5860a4cc508cd0818c85b8b8a1ab4ceeef8d981c8956a6610cba81610e1b565b610cc2611257565b6001600160a01b038316610d185760405162461bcd60e51b815260206004820152601b60248201527f43616e6e6f74206d696e7420746f207a65726f206164647265737300000000006044820152606401610853565b5f8211610d675760405162461bcd60e51b815260206004820152601d60248201527f416d6f756e74206d7573742062652067726561746572207468616e20300000006044820152606401610853565b69d3c21bcecceda100000082610d7c60025490565b610d869190611c36565b1115610dc95760405162461bcd60e51b815260206004820152601260248201527145786365656473206d617820737570706c7960701b6044820152606401610853565b610dd383836112d5565b826001600160a01b03167f3f2c9d57c068687834f0de942a9babb9e5acab57d516d3480a3c16ee165a427383604051610a8e91815260200190565b6107708383836001611309565b6107a781336113db565b6001600160a01b038381165f908152600160209081526040808320938616835292905220545f198110156107295781811015610e8d57604051637dc7a0d960e11b81526001600160a01b03841660048201526024810182905260448101839052606401610853565b61072984848484035f611309565b6001600160a01b038316610ec457604051634b637e8f60e11b81525f6004820152602401610853565b6001600160a01b038216610eed5760405163ec442f0560e01b81525f6004820152602401610853565b610770838383611414565b5f610f0383836109de565b610f82575f8381526009602090815260408083206001600160a01b03861684529091529020805460ff19166001179055610f3a3390565b6001600160a01b0316826001600160a01b0316847f2f8788117e7eff1d82e926ec794901d17c78024a50270940304540a733656f0d60405160405180910390a4506001610609565b505f610609565b5f306001600160a01b037f000000000000000000000000000000000000000000000000000000000000000016148015610fe157507f000000000000000000000000000000000000000000000000000000000000000046145b1561100b57507f000000000000000000000000000000000000000000000000000000000000000090565b610738604080517f8b73c3c69bb8fe3d512ecc4cf759cc79239f7b179b0ffacaa9a75d522b39400f60208201527f0000000000000000000000000000000000000000000000000000000000000000918101919091527f000000000000000000000000000000000000000000000000000000000000000060608201524660808201523060a08201525f9060c00160405160208183030381529060405280519060200120905090565b5f6110bd83836109de565b15610f82575f8381526009602090815260408083206001600160a01b0386168085529252808320805460ff1916905551339286917ff6391f5c32d9c69d2a47ea670b442974b53935d1edc7fd64eb21e047a839171b9190a4506001610609565b611125611543565b6005805460ff191690557f5db9ee0a495bf2e6ff9c91a7834c1ba4fdd244a5e8aa4e537bd38aeae4b073aa335b6040516001600160a01b03909116815260200160405180910390a1565b6001600160a01b03821661119857604051634b637e8f60e11b81525f6004820152602401610853565b6107c9825f83611414565b6001600160a01b0381165f90815260086020526040812054610609565b6111c8611257565b6005805460ff191660011790557f62e78cea01bee320cd4e420270b5ea74000d11b0c9f74754ebdbfc544b05a2586111523390565b60606107387f00000000000000000000000000000000000000000000000000000000000000006006611566565b60606107387f00000000000000000000000000000000000000000000000000000000000000006007611566565b60055460ff161561127b5760405163d93c066560e01b815260040160405180910390fd5b565b5f610609611289610f89565b8360405161190160f01b8152600281019290925260228201526042902090565b5f805f806112b98888888861160f565b9250925092506112c982826116d7565b50909695505050505050565b6001600160a01b0382166112fe5760405163ec442f0560e01b81525f6004820152602401610853565b6107c95f8383611414565b6001600160a01b0384166113325760405163e602df0560e01b81525f6004820152602401610853565b6001600160a01b03831661135b57604051634a1406b160e11b81525f6004820152602401610853565b6001600160a01b038085165f908152600160209081526040808320938716835292905220829055801561072957826001600160a01b0316846001600160a01b03167f8c5be1e5ebec7d5bd14f71427d1e84f3dd0314c0f7b2291e5b200ac8c7c3b925846040516113cd91815260200190565b60405180910390a350505050565b6113e582826109de565b6107c95760405163e2517d3f60e01b81526001600160a01b038216600482015260248101839052604401610853565b61141c611257565b600c5460ff16801561143657506001600160a01b03831615155b801561144a57506001600160a01b03821615155b801561146e57506001600160a01b0383165f908152600d602052604090205460ff16155b801561149257506001600160a01b0382165f908152600d602052604090205460ff16155b15611538575f612710600b54836114a99190611c49565b6114b39190611c60565b90505f6114c08284611c7f565b9050811561152657600a546114e09086906001600160a01b03168461178f565b600a546040518381526001600160a01b03918216918716907fda0fa25c56de3e79f428c5b2eb506efd2656c74122c598d4274edfb9ceda33e89060200160405180910390a35b61153185858361178f565b5050505050565b61077083838361178f565b60055460ff1661127b57604051638dfc202b60e01b815260040160405180910390fd5b606060ff831461158057611579836117a2565b9050610609565b81805461158c90611bea565b80601f01602080910402602001604051908101604052809291908181526020018280546115b890611bea565b80156116035780601f106115da57610100808354040283529160200191611603565b820191905f5260205f20905b8154815290600101906020018083116115e657829003601f168201915b50505050509050610609565b5f80807f7fffffffffffffffffffffffffffffff5d576e7357a4501ddfe92f46681b20a084111561164857505f915060039050826116cd565b604080515f808252602082018084528a905260ff891692820192909252606081018790526080810186905260019060a0016020604051602081039080840390855afa158015611699573d5f803e3d5ffd5b5050604051601f1901519150506001600160a01b0381166116c457505f9250600191508290506116cd565b92505f91508190505b9450945094915050565b5f8260038111156116ea576116ea611c92565b036116f3575050565b600182600381111561170757611707611c92565b036117255760405163f645eedf60e01b815260040160405180910390fd5b600282600381111561173957611739611c92565b0361175a5760405163fce698f760e01b815260048101829052602401610853565b600382600381111561176e5761176e611c92565b036107c9576040516335e2f38360e21b815260048101829052602401610853565b611797611257565b6107708383836117df565b60605f6117ae83611905565b6040805160208082528183019092529192505f91906020820181803683375050509182525060208101929092525090565b6001600160a01b038316611809578060025f8282546117fe9190611c36565b909155506118799050565b6001600160a01b0383165f908152602081905260409020548181101561185b5760405163391434e360e21b81526001600160a01b03851660048201526024810182905260448101839052606401610853565b6001600160a01b0384165f9081526020819052604090209082900390555b6001600160a01b038216611895576002805482900390556118b3565b6001600160a01b0382165f9081526020819052604090208054820190555b816001600160a01b0316836001600160a01b03167fddf252ad1be2c89b69c2b068fc378daa952ba7f163c4a11628f55a4df523b3ef836040516118f891815260200190565b60405180910390a3505050565b5f60ff8216601f81111561060957604051632cd44ac360e21b815260040160405180910390fd5b5f6020828403121561193c575f80fd5b81356001600160e01b031981168114611953575f80fd5b9392505050565b80356001600160a01b0381168114611970575f80fd5b919050565b5f60208284031215611985575f80fd5b6119538261195a565b5f81518084525f5b818110156119b257602081850181015186830182015201611996565b505f602082860101526020601f19601f83011685010191505092915050565b602081525f611953602083018461198e565b5f80604083850312156119f4575f80fd5b6119fd8361195a565b946020939093013593505050565b5f805f60608486031215611a1d575f80fd5b611a268461195a565b9250611a346020850161195a565b9150604084013590509250925092565b5f60208284031215611a54575f80fd5b5035919050565b5f8060408385031215611a6c575f80fd5b82359150611a7c6020840161195a565b90509250929050565b60ff60f81b881681525f602060e06020840152611aa560e084018a61198e565b8381036040850152611ab7818a61198e565b606085018990526001600160a01b038816608086015260a0850187905284810360c0860152855180825260208088019350909101905f5b81811015611b0a57835183529284019291840191600101611aee565b50909c9b505050505050505050505050565b5f8060408385031215611b2d575f80fd5b611b368361195a565b915060208301358015158114611b4a575f80fd5b809150509250929050565b5f805f805f805f60e0888a031215611b6b575f80fd5b611b748861195a565b9650611b826020890161195a565b95506040880135945060608801359350608088013560ff81168114611ba5575f80fd5b9699959850939692959460a0840135945060c09093013592915050565b5f8060408385031215611bd3575f80fd5b611bdc8361195a565b9150611a7c6020840161195a565b600181811c90821680611bfe57607f821691505b602082108103611c1c57634e487b7160e01b5f52602260045260245ffd5b50919050565b634e487b7160e01b5f52601160045260245ffd5b8082018082111561060957610609611c22565b808202811582820484141761060957610609611c22565b5f82611c7a57634e487b7160e01b5f52601260045260245ffd5b500490565b8181038181111561060957610609611c22565b634e487b7160e01b5f52602160045260245ffdfe30f4f48440c1ad721c73a3b5549aa3db7105f00012df64020e3a66b689c0e70ba2646970667358221220fdf343b4d84447a44d9f43225c30537729dee34317de5e12753bda35b674f2e264736f6c634300081800333f2c9d57c068687834f0de942a9babb9e5acab57d516d3480a3c16ee165a4273","opcodes":"PUSH2 0x160 PUSH1 0x40 MSTORE PUSH1 0xC8 PUSH1 0xB SSTORE PUSH1 0xC DUP1 SLOAD PUSH1 0xFF NOT AND PUSH1 0x1 OR SWAP1 SSTORE CALLVALUE DUP1 ISZERO PUSH3 0x23 JUMPI PUSH0 DUP1 REVERT JUMPDEST POP PUSH1 0x40 MLOAD PUSH3 0x2970 CODESIZE SUB DUP1 PUSH3 0x2970 DUP4 CODECOPY DUP2 ADD PUSH1 0x40 DUP2 SWAP1 MSTORE PUSH3 0x46 SWAP2 PUSH3 0x96D JUMP JUMPDEST PUSH1 0x40 MLOAD DUP1 PUSH1 0x40 ADD PUSH1 0x40 MSTORE DUP1 PUSH1 0xE DUP2 MSTORE PUSH1 0x20 ADD PUSH14 0x24B73334B734BA37902A37B5B2B7 PUSH1 0x91 SHL DUP2 MSTORE POP DUP1 PUSH1 0x40 MLOAD DUP1 PUSH1 0x40 ADD PUSH1 0x40 MSTORE DUP1 PUSH1 0x1 DUP2 MSTORE PUSH1 0x20 ADD PUSH1 0x31 PUSH1 0xF8 SHL DUP2 MSTORE POP PUSH1 0x40 MLOAD DUP1 PUSH1 0x40 ADD PUSH1 0x40 MSTORE DUP1 PUSH1 0xE DUP2 MSTORE PUSH1 0x20 ADD PUSH14 0x24B73334B734BA37902A37B5B2B7 PUSH1 0x91 SHL DUP2 MSTORE POP PUSH1 0x40 MLOAD DUP1 PUSH1 0x40 ADD PUSH1 0x40 MSTORE DUP1 PUSH1 0x2 DUP2 MSTORE PUSH1 0x20 ADD PUSH2 0x5449 PUSH1 0xF0 SHL DUP2 MSTORE POP DUP2 PUSH1 0x3 SWAP1 DUP2 PUSH3 0xDB SWAP2 SWAP1 PUSH3 0xA4A JUMP JUMPDEST POP PUSH1 0x4 PUSH3 0xEA DUP3 DUP3 PUSH3 0xA4A JUMP JUMPDEST POP PUSH3 0xFC SWAP2 POP DUP4 SWAP1 POP PUSH1 0x6 PUSH3 0x4E0 JUMP JUMPDEST PUSH2 0x120 MSTORE PUSH3 0x10D DUP2 PUSH1 0x7 PUSH3 0x4E0 JUMP JUMPDEST PUSH2 0x140 MSTORE DUP2 MLOAD PUSH1 0x20 DUP1 DUP5 ADD SWAP2 SWAP1 SWAP2 KECCAK256 PUSH1 0xE0 MSTORE DUP2 MLOAD SWAP1 DUP3 ADD KECCAK256 PUSH2 0x100 MSTORE CHAINID PUSH1 0xA0 MSTORE PUSH3 0x19A PUSH1 0xE0 MLOAD PUSH2 0x100 MLOAD PUSH1 0x40 DUP1 MLOAD PUSH32 0x8B73C3C69BB8FE3D512ECC4CF759CC79239F7B179B0FFACAA9A75D522B39400F PUSH1 0x20 DUP3 ADD MSTORE SWAP1 DUP2 ADD SWAP3 SWAP1 SWAP3 MSTORE PUSH1 0x60 DUP3 ADD MSTORE CHAINID PUSH1 0x80 DUP3 ADD MSTORE ADDRESS PUSH1 0xA0 DUP3 ADD MSTORE PUSH0 SWAP1 PUSH1 0xC0 ADD PUSH1 0x40 MLOAD PUSH1 0x20 DUP2 DUP4 SUB SUB DUP2 MSTORE SWAP1 PUSH1 0x40 MSTORE DUP1 MLOAD SWAP1 PUSH1 0x20 ADD KECCAK256 SWAP1 POP SWAP1 JUMP JUMPDEST PUSH1 0x80 MSTORE POP POP ADDRESS PUSH1 0xC0 MSTORE POP PUSH1 0x1 PUSH32 0x9B779B17422D0DF92223018B32B4D1FA46E071723D6817E2486D003BECC55F00 SSTORE PUSH1 0x1 PUSH1 0x1 PUSH1 0xA0 SHL SUB DUP4 AND PUSH3 0x224 JUMPI PUSH1 0x40 MLOAD PUSH3 0x461BCD PUSH1 0xE5 SHL DUP2 MSTORE PUSH1 0x20 PUSH1 0x4 DUP3 ADD MSTORE PUSH1 0x17 PUSH1 0x24 DUP3 ADD MSTORE PUSH32 0x54726561737572792063616E6E6F74206265207A65726F000000000000000000 PUSH1 0x44 DUP3 ADD MSTORE PUSH1 0x64 ADD JUMPDEST PUSH1 0x40 MLOAD DUP1 SWAP2 SUB SWAP1 REVERT JUMPDEST PUSH1 0x1 PUSH1 0x1 PUSH1 0xA0 SHL SUB DUP3 AND PUSH3 0x27C JUMPI PUSH1 0x40 MLOAD PUSH3 0x461BCD PUSH1 0xE5 SHL DUP2 MSTORE PUSH1 0x20 PUSH1 0x4 DUP3 ADD MSTORE PUSH1 0x15 PUSH1 0x24 DUP3 ADD MSTORE PUSH32 0x5061647265732063616E6E6F74206265207A65726F0000000000000000000000 PUSH1 0x44 DUP3 ADD MSTORE PUSH1 0x64 ADD PUSH3 0x21B JUMP JUMPDEST PUSH1 0x1 PUSH1 0x1 PUSH1 0xA0 SHL SUB DUP2 AND PUSH3 0x2D4 JUMPI PUSH1 0x40 MLOAD PUSH3 0x461BCD PUSH1 0xE5 SHL DUP2 MSTORE PUSH1 0x20 PUSH1 0x4 DUP3 ADD MSTORE PUSH1 0x14 PUSH1 0x24 DUP3 ADD MSTORE PUSH32 0x4A6F6B65722063616E6E6F74206265207A65726F000000000000000000000000 PUSH1 0x44 DUP3 ADD MSTORE PUSH1 0x64 ADD PUSH3 0x21B JUMP JUMPDEST PUSH3 0x2E0 PUSH0 DUP3 PUSH3 0x518 JUMP JUMPDEST POP PUSH3 0x30D PUSH32 0x9F2DF0FED2C77648DE5860A4CC508CD0818C85B8B8A1AB4CEEEF8D981C8956A6 DUP3 PUSH3 0x518 JUMP JUMPDEST POP PUSH3 0x33A PUSH32 0x65D7A28E3265B37A6474929F336521B332C1681B933F6CB9F3376673440D862A DUP3 PUSH3 0x518 JUMP JUMPDEST POP PUSH3 0x367 PUSH32 0x30F4F48440C1AD721C73A3B5549AA3DB7105F00012DF64020E3A66B689C0E70B DUP3 PUSH3 0x518 JUMP JUMPDEST POP PUSH3 0x394 PUSH32 0xE1DCBDB91DF27212A29BC27177C840CF2F819ECF2187432E1FAC86C2DD5DFCA9 DUP5 PUSH3 0x518 JUMP JUMPDEST POP PUSH1 0xA DUP1 SLOAD PUSH1 0x1 PUSH1 0x1 PUSH1 0xA0 SHL SUB NOT AND PUSH1 0x1 PUSH1 0x1 PUSH1 0xA0 SHL SUB DUP6 DUP2 AND SWAP2 DUP3 OR SWAP1 SWAP3 SSTORE PUSH0 SWAP1 DUP2 MSTORE PUSH1 0xD PUSH1 0x20 MSTORE PUSH1 0x40 DUP1 DUP3 KECCAK256 DUP1 SLOAD PUSH1 0xFF NOT SWAP1 DUP2 AND PUSH1 0x1 SWAP1 DUP2 OR SWAP1 SWAP3 SSTORE SWAP4 DUP6 AND DUP4 MSTORE SWAP2 KECCAK256 DUP1 SLOAD SWAP1 SWAP3 AND OR SWAP1 SSTORE PUSH3 0x411 DUP3 PUSH1 0x64 PUSH3 0x3FF PUSH10 0xD3C21BCECCEDA1000000 PUSH1 0x33 PUSH3 0xB2A JUMP JUMPDEST PUSH3 0x40B SWAP2 SWAP1 PUSH3 0xB44 JUMP JUMPDEST PUSH3 0x5C7 JUMP JUMPDEST PUSH1 0x1 PUSH1 0x1 PUSH1 0xA0 SHL SUB DUP3 AND PUSH0 DUP1 MLOAD PUSH1 0x20 PUSH3 0x2950 DUP4 CODECOPY DUP2 MLOAD SWAP2 MSTORE PUSH1 0x64 PUSH3 0x443 PUSH10 0xD3C21BCECCEDA1000000 PUSH1 0x33 PUSH3 0xB2A JUMP JUMPDEST PUSH3 0x44F SWAP2 SWAP1 PUSH3 0xB44 JUMP JUMPDEST PUSH1 0x40 MLOAD SWAP1 DUP2 MSTORE PUSH1 0x20 ADD PUSH1 0x40 MLOAD DUP1 SWAP2 SUB SWAP1 LOG2 PUSH3 0x47E DUP2 PUSH1 0x64 PUSH3 0x3FF PUSH10 0xD3C21BCECCEDA1000000 PUSH1 0x23 PUSH3 0xB2A JUMP JUMPDEST PUSH1 0x1 PUSH1 0x1 PUSH1 0xA0 SHL SUB DUP2 AND PUSH0 DUP1 MLOAD PUSH1 0x20 PUSH3 0x2950 DUP4 CODECOPY DUP2 MLOAD SWAP2 MSTORE PUSH1 0x64 PUSH3 0x4B0 PUSH10 0xD3C21BCECCEDA1000000 PUSH1 0x23 PUSH3 0xB2A JUMP JUMPDEST PUSH3 0x4BC SWAP2 SWAP1 PUSH3 0xB44 JUMP JUMPDEST PUSH1 0x40 MLOAD SWAP1 DUP2 MSTORE PUSH1 0x20 ADD PUSH1 0x40 MLOAD DUP1 SWAP2 SUB SWAP1 LOG2 PUSH3 0x4D7 PUSH3 0x603 JUMP JUMPDEST POP POP POP PUSH3 0xC02 JUMP JUMPDEST PUSH0 PUSH1 0x20 DUP4 MLOAD LT ISZERO PUSH3 0x4FF JUMPI PUSH3 0x4F7 DUP4 PUSH3 0x660 JUMP JUMPDEST SWAP1 POP PUSH3 0x512 JUMP JUMPDEST DUP2 PUSH3 0x50C DUP5 DUP3 PUSH3 0xA4A JUMP JUMPDEST POP PUSH1 0xFF SWAP1 POP JUMPDEST SWAP3 SWAP2 POP POP JUMP JUMPDEST PUSH0 DUP3 DUP2 MSTORE PUSH1 0x9 PUSH1 0x20 SWAP1 DUP2 MSTORE PUSH1 0x40 DUP1 DUP4 KECCAK256 PUSH1 0x1 PUSH1 0x1 PUSH1 0xA0 SHL SUB DUP6 AND DUP5 MSTORE SWAP1 SWAP2 MSTORE DUP2 KECCAK256 SLOAD PUSH1 0xFF AND PUSH3 0x5BF JUMPI PUSH0 DUP4 DUP2 MSTORE PUSH1 0x9 PUSH1 0x20 SWAP1 DUP2 MSTORE PUSH1 0x40 DUP1 DUP4 KECCAK256 PUSH1 0x1 PUSH1 0x1 PUSH1 0xA0 SHL SUB DUP7 AND DUP5 MSTORE SWAP1 SWAP2 MSTORE SWAP1 KECCAK256 DUP1 SLOAD PUSH1 0xFF NOT AND PUSH1 0x1 OR SWAP1 SSTORE PUSH3 0x576 CALLER SWAP1 JUMP JUMPDEST PUSH1 0x1 PUSH1 0x1 PUSH1 0xA0 SHL SUB AND DUP3 PUSH1 0x1 PUSH1 0x1 PUSH1 0xA0 SHL SUB AND DUP5 PUSH32 0x2F8788117E7EFF1D82E926EC794901D17C78024A50270940304540A733656F0D PUSH1 0x40 MLOAD PUSH1 0x40 MLOAD DUP1 SWAP2 SUB SWAP1 LOG4 POP PUSH1 0x1 PUSH3 0x512 JUMP JUMPDEST POP PUSH0 PUSH3 0x512 JUMP JUMPDEST PUSH1 0x1 PUSH1 0x1 PUSH1 0xA0 SHL SUB DUP3 AND PUSH3 0x5F2 JUMPI PUSH1 0x40 MLOAD PUSH4 0xEC442F05 PUSH1 0xE0 SHL DUP2 MSTORE PUSH0 PUSH1 0x4 DUP3 ADD MSTORE PUSH1 0x24 ADD PUSH3 0x21B JUMP JUMPDEST PUSH3 0x5FF PUSH0 DUP4 DUP4 PUSH3 0x6A2 JUMP JUMPDEST POP POP JUMP JUMPDEST PUSH3 0x60D PUSH3 0x7EA JUMP JUMPDEST PUSH1 0x5 DUP1 SLOAD PUSH1 0xFF NOT AND PUSH1 0x1 OR SWAP1 SSTORE PUSH32 0x62E78CEA01BEE320CD4E420270B5EA74000D11B0C9F74754EBDBFC544B05A258 PUSH3 0x643 CALLER SWAP1 JUMP JUMPDEST PUSH1 0x40 MLOAD PUSH1 0x1 PUSH1 0x1 PUSH1 0xA0 SHL SUB SWAP1 SWAP2 AND DUP2 MSTORE PUSH1 0x20 ADD PUSH1 0x40 MLOAD DUP1 SWAP2 SUB SWAP1 LOG1 JUMP JUMPDEST PUSH0 DUP1 DUP3 SWAP1 POP PUSH1 0x1F DUP2 MLOAD GT ISZERO PUSH3 0x68D JUMPI DUP3 PUSH1 0x40 MLOAD PUSH4 0x305A27A9 PUSH1 0xE0 SHL DUP2 MSTORE PUSH1 0x4 ADD PUSH3 0x21B SWAP2 SWAP1 PUSH3 0xB64 JUMP JUMPDEST DUP1 MLOAD PUSH3 0x69A DUP3 PUSH3 0xBB2 JUMP JUMPDEST OR SWAP4 SWAP3 POP POP POP JUMP JUMPDEST PUSH3 0x6AC PUSH3 0x7EA JUMP JUMPDEST PUSH1 0xC SLOAD PUSH1 0xFF AND DUP1 ISZERO PUSH3 0x6C7 JUMPI POP PUSH1 0x1 PUSH1 0x1 PUSH1 0xA0 SHL SUB DUP4 AND ISZERO ISZERO JUMPDEST DUP1 ISZERO PUSH3 0x6DC JUMPI POP PUSH1 0x1 PUSH1 0x1 PUSH1 0xA0 SHL SUB DUP3 AND ISZERO ISZERO JUMPDEST DUP1 ISZERO PUSH3 0x701 JUMPI POP PUSH1 0x1 PUSH1 0x1 PUSH1 0xA0 SHL SUB DUP4 AND PUSH0 SWAP1 DUP2 MSTORE PUSH1 0xD PUSH1 0x20 MSTORE PUSH1 0x40 SWAP1 KECCAK256 SLOAD PUSH1 0xFF AND ISZERO JUMPDEST DUP1 ISZERO PUSH3 0x726 JUMPI POP PUSH1 0x1 PUSH1 0x1 PUSH1 0xA0 SHL SUB DUP3 AND PUSH0 SWAP1 DUP2 MSTORE PUSH1 0xD PUSH1 0x20 MSTORE PUSH1 0x40 SWAP1 KECCAK256 SLOAD PUSH1 0xFF AND ISZERO JUMPDEST ISZERO PUSH3 0x7D8 JUMPI PUSH0 PUSH2 0x2710 PUSH1 0xB SLOAD DUP4 PUSH3 0x740 SWAP2 SWAP1 PUSH3 0xB2A JUMP JUMPDEST PUSH3 0x74C SWAP2 SWAP1 PUSH3 0xB44 JUMP JUMPDEST SWAP1 POP PUSH0 PUSH3 0x75B DUP3 DUP5 PUSH3 0xBD6 JUMP JUMPDEST SWAP1 POP DUP2 ISZERO PUSH3 0x7C4 JUMPI PUSH1 0xA SLOAD PUSH3 0x77E SWAP1 DUP7 SWAP1 PUSH1 0x1 PUSH1 0x1 PUSH1 0xA0 SHL SUB AND DUP5 PUSH3 0x811 JUMP JUMPDEST PUSH1 0xA SLOAD PUSH1 0x40 MLOAD DUP4 DUP2 MSTORE PUSH1 0x1 PUSH1 0x1 PUSH1 0xA0 SHL SUB SWAP2 DUP3 AND SWAP2 DUP8 AND SWAP1 PUSH32 0xDA0FA25C56DE3E79F428C5B2EB506EFD2656C74122C598D4274EDFB9CEDA33E8 SWAP1 PUSH1 0x20 ADD PUSH1 0x40 MLOAD DUP1 SWAP2 SUB SWAP1 LOG3 JUMPDEST PUSH3 0x7D1 DUP6 DUP6 DUP4 PUSH3 0x811 JUMP JUMPDEST POP POP POP POP POP JUMP JUMPDEST PUSH3 0x7E5 DUP4 DUP4 DUP4 PUSH3 0x811 JUMP JUMPDEST POP POP POP JUMP JUMPDEST PUSH1 0x5 SLOAD PUSH1 0xFF AND ISZERO PUSH3 0x80F JUMPI PUSH1 0x40 MLOAD PUSH4 0xD93C0665 PUSH1 0xE0 SHL DUP2 MSTORE PUSH1 0x4 ADD PUSH1 0x40 MLOAD DUP1 SWAP2 SUB SWAP1 REVERT JUMPDEST JUMP JUMPDEST PUSH3 0x81B PUSH3 0x7EA JUMP JUMPDEST PUSH3 0x7E5 DUP4 DUP4 DUP4 PUSH1 0x1 PUSH1 0x1 PUSH1 0xA0 SHL SUB DUP4 AND PUSH3 0x850 JUMPI DUP1 PUSH1 0x2 PUSH0 DUP3 DUP3 SLOAD PUSH3 0x844 SWAP2 SWAP1 PUSH3 0xBEC JUMP JUMPDEST SWAP1 SWAP2 SSTORE POP PUSH3 0x8C2 SWAP1 POP JUMP JUMPDEST PUSH1 0x1 PUSH1 0x1 PUSH1 0xA0 SHL SUB DUP4 AND PUSH0 SWAP1 DUP2 MSTORE PUSH1 0x20 DUP2 SWAP1 MSTORE PUSH1 0x40 SWAP1 KECCAK256 SLOAD DUP2 DUP2 LT ISZERO PUSH3 0x8A4 JUMPI PUSH1 0x40 MLOAD PUSH4 0x391434E3 PUSH1 0xE2 SHL DUP2 MSTORE PUSH1 0x1 PUSH1 0x1 PUSH1 0xA0 SHL SUB DUP6 AND PUSH1 0x4 DUP3 ADD MSTORE PUSH1 0x24 DUP2 ADD DUP3 SWAP1 MSTORE PUSH1 0x44 DUP2 ADD DUP4 SWAP1 MSTORE PUSH1 0x64 ADD PUSH3 0x21B JUMP JUMPDEST PUSH1 0x1 PUSH1 0x1 PUSH1 0xA0 SHL SUB DUP5 AND PUSH0 SWAP1 DUP2 MSTORE PUSH1 0x20 DUP2 SWAP1 MSTORE PUSH1 0x40 SWAP1 KECCAK256 SWAP1 DUP3 SWAP1 SUB SWAP1 SSTORE JUMPDEST PUSH1 0x1 PUSH1 0x1 PUSH1 0xA0 SHL SUB DUP3 AND PUSH3 0x8E0 JUMPI PUSH1 0x2 DUP1 SLOAD DUP3 SWAP1 SUB SWAP1 SSTORE PUSH3 0x8FE JUMP JUMPDEST PUSH1 0x1 PUSH1 0x1 PUSH1 0xA0 SHL SUB DUP3 AND PUSH0 SWAP1 DUP2 MSTORE PUSH1 0x20 DUP2 SWAP1 MSTORE PUSH1 0x40 SWAP1 KECCAK256 DUP1 SLOAD DUP3 ADD SWAP1 SSTORE JUMPDEST DUP2 PUSH1 0x1 PUSH1 0x1 PUSH1 0xA0 SHL SUB AND DUP4 PUSH1 0x1 PUSH1 0x1 PUSH1 0xA0 SHL SUB AND PUSH32 0xDDF252AD1BE2C89B69C2B068FC378DAA952BA7F163C4A11628F55A4DF523B3EF DUP4 PUSH1 0x40 MLOAD PUSH3 0x944 SWAP2 DUP2 MSTORE PUSH1 0x20 ADD SWAP1 JUMP JUMPDEST PUSH1 0x40 MLOAD DUP1 SWAP2 SUB SWAP1 LOG3 POP POP POP JUMP JUMPDEST DUP1 MLOAD PUSH1 0x1 PUSH1 0x1 PUSH1 0xA0 SHL SUB DUP2 AND DUP2 EQ PUSH3 0x968 JUMPI PUSH0 DUP1 REVERT JUMPDEST SWAP2 SWAP1 POP JUMP JUMPDEST PUSH0 DUP1 PUSH0 PUSH1 0x60 DUP5 DUP7 SUB SLT ISZERO PUSH3 0x980 JUMPI PUSH0 DUP1 REVERT JUMPDEST PUSH3 0x98B DUP5 PUSH3 0x951 JUMP JUMPDEST SWAP3 POP PUSH3 0x99B PUSH1 0x20 DUP6 ADD PUSH3 0x951 JUMP JUMPDEST SWAP2 POP PUSH3 0x9AB PUSH1 0x40 DUP6 ADD PUSH3 0x951 JUMP JUMPDEST SWAP1 POP SWAP3 POP SWAP3 POP SWAP3 JUMP JUMPDEST PUSH4 0x4E487B71 PUSH1 0xE0 SHL PUSH0 MSTORE PUSH1 0x41 PUSH1 0x4 MSTORE PUSH1 0x24 PUSH0 REVERT JUMPDEST PUSH1 0x1 DUP2 DUP2 SHR SWAP1 DUP3 AND DUP1 PUSH3 0x9DD JUMPI PUSH1 0x7F DUP3 AND SWAP2 POP JUMPDEST PUSH1 0x20 DUP3 LT DUP2 SUB PUSH3 0x9FC JUMPI PUSH4 0x4E487B71 PUSH1 0xE0 SHL PUSH0 MSTORE PUSH1 0x22 PUSH1 0x4 MSTORE PUSH1 0x24 PUSH0 REVERT JUMPDEST POP SWAP2 SWAP1 POP JUMP JUMPDEST PUSH1 0x1F DUP3 GT ISZERO PUSH3 0x7E5 JUMPI DUP1 PUSH0 MSTORE PUSH1 0x20 PUSH0 KECCAK256 PUSH1 0x1F DUP5 ADD PUSH1 0x5 SHR DUP2 ADD PUSH1 0x20 DUP6 LT ISZERO PUSH3 0xA29 JUMPI POP DUP1 JUMPDEST PUSH1 0x1F DUP5 ADD PUSH1 0x5 SHR DUP3 ADD SWAP2 POP JUMPDEST DUP2 DUP2 LT ISZERO PUSH3 0x7D1 JUMPI PUSH0 DUP2 SSTORE PUSH1 0x1 ADD PUSH3 0xA35 JUMP JUMPDEST DUP2 MLOAD PUSH1 0x1 PUSH1 0x1 PUSH1 0x40 SHL SUB DUP2 GT ISZERO PUSH3 0xA66 JUMPI PUSH3 0xA66 PUSH3 0x9B4 JUMP JUMPDEST PUSH3 0xA7E DUP2 PUSH3 0xA77 DUP5 SLOAD PUSH3 0x9C8 JUMP JUMPDEST DUP5 PUSH3 0xA02 JUMP JUMPDEST PUSH1 0x20 DUP1 PUSH1 0x1F DUP4 GT PUSH1 0x1 DUP2 EQ PUSH3 0xAB4 JUMPI PUSH0 DUP5 ISZERO PUSH3 0xA9C JUMPI POP DUP6 DUP4 ADD MLOAD JUMPDEST PUSH0 NOT PUSH1 0x3 DUP7 SWAP1 SHL SHR NOT AND PUSH1 0x1 DUP6 SWAP1 SHL OR DUP6 SSTORE PUSH3 0xB0E JUMP JUMPDEST PUSH0 DUP6 DUP2 MSTORE PUSH1 0x20 DUP2 KECCAK256 PUSH1 0x1F NOT DUP7 AND SWAP2 JUMPDEST DUP3 DUP2 LT ISZERO PUSH3 0xAE4 JUMPI DUP9 DUP7 ADD MLOAD DUP3 SSTORE SWAP5 DUP5 ADD SWAP5 PUSH1 0x1 SWAP1 SWAP2 ADD SWAP1 DUP5 ADD PUSH3 0xAC3 JUMP JUMPDEST POP DUP6 DUP3 LT ISZERO PUSH3 0xB02 JUMPI DUP8 DUP6 ADD MLOAD PUSH0 NOT PUSH1 0x3 DUP9 SWAP1 SHL PUSH1 0xF8 AND SHR NOT AND DUP2 SSTORE JUMPDEST POP POP PUSH1 0x1 DUP5 PUSH1 0x1 SHL ADD DUP6 SSTORE JUMPDEST POP POP POP POP POP POP JUMP JUMPDEST PUSH4 0x4E487B71 PUSH1 0xE0 SHL PUSH0 MSTORE PUSH1 0x11 PUSH1 0x4 MSTORE PUSH1 0x24 PUSH0 REVERT JUMPDEST DUP1 DUP3 MUL DUP2 ISZERO DUP3 DUP3 DIV DUP5 EQ OR PUSH3 0x512 JUMPI PUSH3 0x512 PUSH3 0xB16 JUMP JUMPDEST PUSH0 DUP3 PUSH3 0xB5F JUMPI PUSH4 0x4E487B71 PUSH1 0xE0 SHL PUSH0 MSTORE PUSH1 0x12 PUSH1 0x4 MSTORE PUSH1 0x24 PUSH0 REVERT JUMPDEST POP DIV SWAP1 JUMP JUMPDEST PUSH0 PUSH1 0x20 DUP1 DUP4 MSTORE DUP4 MLOAD DUP1 PUSH1 0x20 DUP6 ADD MSTORE PUSH0 JUMPDEST DUP2 DUP2 LT ISZERO PUSH3 0xB92 JUMPI DUP6 DUP2 ADD DUP4 ADD MLOAD DUP6 DUP3 ADD PUSH1 0x40 ADD MSTORE DUP3 ADD PUSH3 0xB74 JUMP JUMPDEST POP PUSH0 PUSH1 0x40 DUP3 DUP7 ADD ADD MSTORE PUSH1 0x40 PUSH1 0x1F NOT PUSH1 0x1F DUP4 ADD AND DUP6 ADD ADD SWAP3 POP POP POP SWAP3 SWAP2 POP POP JUMP JUMPDEST DUP1 MLOAD PUSH1 0x20 DUP1 DUP4 ADD MLOAD SWAP2 SWAP1 DUP2 LT ISZERO PUSH3 0x9FC JUMPI PUSH0 NOT PUSH1 0x20 SWAP2 SWAP1 SWAP2 SUB PUSH1 0x3 SHL SHL AND SWAP2 SWAP1 POP JUMP JUMPDEST DUP2 DUP2 SUB DUP2 DUP2 GT ISZERO PUSH3 0x512 JUMPI PUSH3 0x512 PUSH3 0xB16 JUMP JUMPDEST DUP1 DUP3 ADD DUP1 DUP3 GT ISZERO PUSH3 0x512 JUMPI PUSH3 0x512 PUSH3 0xB16 JUMP JUMPDEST PUSH1 0x80 MLOAD PUSH1 0xA0 MLOAD PUSH1 0xC0 MLOAD PUSH1 0xE0 MLOAD PUSH2 0x100 MLOAD PUSH2 0x120 MLOAD PUSH2 0x140 MLOAD PUSH2 0x1CFC PUSH3 0xC54 PUSH0 CODECOPY PUSH0 PUSH2 0x1231 ADD MSTORE PUSH0 PUSH2 0x1204 ADD MSTORE PUSH0 PUSH2 0x1062 ADD MSTORE PUSH0 PUSH2 0x103A ADD MSTORE PUSH0 PUSH2 0xF95 ADD MSTORE PUSH0 PUSH2 0xFBF ADD MSTORE PUSH0 PUSH2 0xFE9 ADD MSTORE PUSH2 0x1CFC PUSH0 RETURN INVALID PUSH1 0x80 PUSH1 0x40 MSTORE CALLVALUE DUP1 ISZERO PUSH2 0xF JUMPI PUSH0 DUP1 REVERT JUMPDEST POP PUSH1 0x4 CALLDATASIZE LT PUSH2 0x260 JUMPI PUSH0 CALLDATALOAD PUSH1 0xE0 SHR DUP1 PUSH4 0x7F51BB1F GT PUSH2 0x14B JUMPI DUP1 PUSH4 0xC5F956AF GT PUSH2 0xBF JUMPI DUP1 PUSH4 0xD5391393 GT PUSH2 0x84 JUMPI DUP1 PUSH4 0xD5391393 EQ PUSH2 0x52D JUMPI DUP1 PUSH4 0xD547741F EQ PUSH2 0x554 JUMPI DUP1 PUSH4 0xDD62ED3E EQ PUSH2 0x567 JUMPI DUP1 PUSH4 0xE63AB1E9 EQ PUSH2 0x59F JUMPI DUP1 PUSH4 0xF0DDA65C EQ PUSH2 0x5C6 JUMPI DUP1 PUSH4 0xF698DA25 EQ PUSH2 0x352 JUMPI PUSH0 DUP1 REVERT JUMPDEST DUP1 PUSH4 0xC5F956AF EQ PUSH2 0x4A8 JUMPI DUP1 PUSH4 0xCCA0FEB6 EQ PUSH2 0x4D3 JUMPI DUP1 PUSH4 0xD11A57EC EQ PUSH2 0x4E6 JUMPI DUP1 PUSH4 0xD4DC0070 EQ PUSH2 0x50D JUMPI DUP1 PUSH4 0xD505ACCF EQ PUSH2 0x51A JUMPI PUSH0 DUP1 REVERT JUMPDEST DUP1 PUSH4 0x91D14854 GT PUSH2 0x110 JUMPI DUP1 PUSH4 0x91D14854 EQ PUSH2 0x44C JUMPI DUP1 PUSH4 0x95D89B41 EQ PUSH2 0x45F JUMPI DUP1 PUSH4 0x967A2A70 EQ PUSH2 0x467 JUMPI DUP1 PUSH4 0xA217FDDF EQ PUSH2 0x47B JUMPI DUP1 PUSH4 0xA9059CBB EQ PUSH2 0x482 JUMPI DUP1 PUSH4 0xB64E3C74 EQ PUSH2 0x495 JUMPI PUSH0 DUP1 REVERT JUMPDEST DUP1 PUSH4 0x7F51BB1F EQ PUSH2 0x3F2 JUMPI DUP1 PUSH4 0x8456CB59 EQ PUSH2 0x405 JUMPI DUP1 PUSH4 0x84B0196E EQ PUSH2 0x40D JUMPI DUP1 PUSH4 0x87ED238A EQ PUSH2 0x428 JUMPI DUP1 PUSH4 0x902D55A5 EQ PUSH2 0x43B JUMPI PUSH0 DUP1 REVERT JUMPDEST DUP1 PUSH4 0x313CE567 GT PUSH2 0x1E2 JUMPI DUP1 PUSH4 0x42966C68 GT PUSH2 0x1A7 JUMPI DUP1 PUSH4 0x42966C68 EQ PUSH2 0x37E JUMPI DUP1 PUSH4 0x5C975ABB EQ PUSH2 0x391 JUMPI DUP1 PUSH4 0x68F4A786 EQ PUSH2 0x39C JUMPI DUP1 PUSH4 0x70A08231 EQ PUSH2 0x3A4 JUMPI DUP1 PUSH4 0x79CC6790 EQ PUSH2 0x3CC JUMPI DUP1 PUSH4 0x7ECEBE00 EQ PUSH2 0x3DF JUMPI PUSH0 DUP1 REVERT JUMPDEST DUP1 PUSH4 0x313CE567 EQ PUSH2 0x343 JUMPI DUP1 PUSH4 0x3644E515 EQ PUSH2 0x352 JUMPI DUP1 PUSH4 0x36568ABE EQ PUSH2 0x35A JUMPI DUP1 PUSH4 0x3EACD2F8 EQ PUSH2 0x36D JUMPI DUP1 PUSH4 0x3F4BA83A EQ PUSH2 0x376 JUMPI PUSH0 DUP1 REVERT JUMPDEST DUP1 PUSH4 0x18160DDD GT PUSH2 0x228 JUMPI DUP1 PUSH4 0x18160DDD EQ PUSH2 0x2E0 JUMPI DUP1 PUSH4 0x23B872DD EQ PUSH2 0x2F2 JUMPI DUP1 PUSH4 0x248A9CA3 EQ PUSH2 0x305 JUMPI DUP1 PUSH4 0x2C597DE9 EQ PUSH2 0x327 JUMPI DUP1 PUSH4 0x2F2FF15D EQ PUSH2 0x330 JUMPI PUSH0 DUP1 REVERT JUMPDEST DUP1 PUSH4 0x1FFC9A7 EQ PUSH2 0x264 JUMPI DUP1 PUSH4 0x60E7844 EQ PUSH2 0x28C JUMPI DUP1 PUSH4 0x6FDDE03 EQ PUSH2 0x2AE JUMPI DUP1 PUSH4 0x95EA7B3 EQ PUSH2 0x2C3 JUMPI DUP1 PUSH4 0x10BF6029 EQ PUSH2 0x2D6 JUMPI JUMPDEST PUSH0 DUP1 REVERT JUMPDEST PUSH2 0x277 PUSH2 0x272 CALLDATASIZE PUSH1 0x4 PUSH2 0x192C JUMP JUMPDEST PUSH2 0x5D9 JUMP JUMPDEST PUSH1 0x40 MLOAD SWAP1 ISZERO ISZERO DUP2 MSTORE PUSH1 0x20 ADD JUMPDEST PUSH1 0x40 MLOAD DUP1 SWAP2 SUB SWAP1 RETURN JUMPDEST PUSH2 0x277 PUSH2 0x29A CALLDATASIZE PUSH1 0x4 PUSH2 0x1975 JUMP JUMPDEST PUSH1 0xD PUSH1 0x20 MSTORE PUSH0 SWAP1 DUP2 MSTORE PUSH1 0x40 SWAP1 KECCAK256 SLOAD PUSH1 0xFF AND DUP2 JUMP JUMPDEST PUSH2 0x2B6 PUSH2 0x60F JUMP JUMPDEST PUSH1 0x40 MLOAD PUSH2 0x283 SWAP2 SWAP1 PUSH2 0x19D1 JUMP JUMPDEST PUSH2 0x277 PUSH2 0x2D1 CALLDATASIZE PUSH1 0x4 PUSH2 0x19E3 JUMP JUMPDEST PUSH2 0x69F JUMP JUMPDEST PUSH2 0x2DE PUSH2 0x6B6 JUMP JUMPDEST STOP JUMPDEST PUSH1 0x2 SLOAD JUMPDEST PUSH1 0x40 MLOAD SWAP1 DUP2 MSTORE PUSH1 0x20 ADD PUSH2 0x283 JUMP JUMPDEST PUSH2 0x277 PUSH2 0x300 CALLDATASIZE PUSH1 0x4 PUSH2 0x1A0B JUMP JUMPDEST PUSH2 0x6E2 JUMP JUMPDEST PUSH2 0x2E4 PUSH2 0x313 CALLDATASIZE PUSH1 0x4 PUSH2 0x1A44 JUMP JUMPDEST PUSH0 SWAP1 DUP2 MSTORE PUSH1 0x9 PUSH1 0x20 MSTORE PUSH1 0x40 SWAP1 KECCAK256 PUSH1 0x1 ADD SLOAD SWAP1 JUMP JUMPDEST PUSH2 0x2E4 PUSH2 0x1F4 DUP2 JUMP JUMPDEST PUSH2 0x2DE PUSH2 0x33E CALLDATASIZE PUSH1 0x4 PUSH2 0x1A5B JUMP JUMPDEST PUSH2 0x705 JUMP JUMPDEST PUSH1 0x40 MLOAD PUSH1 0x12 DUP2 MSTORE PUSH1 0x20 ADD PUSH2 0x283 JUMP JUMPDEST PUSH2 0x2E4 PUSH2 0x72F JUMP JUMPDEST PUSH2 0x2DE PUSH2 0x368 CALLDATASIZE PUSH1 0x4 PUSH2 0x1A5B JUMP JUMPDEST PUSH2 0x73D JUMP JUMPDEST PUSH2 0x2E4 PUSH1 0xB SLOAD DUP2 JUMP JUMPDEST PUSH2 0x2DE PUSH2 0x775 JUMP JUMPDEST PUSH2 0x2DE PUSH2 0x38C CALLDATASIZE PUSH1 0x4 PUSH2 0x1A44 JUMP JUMPDEST PUSH2 0x7AA JUMP JUMPDEST PUSH1 0x5 SLOAD PUSH1 0xFF AND PUSH2 0x277 JUMP JUMPDEST PUSH2 0x2E4 PUSH1 0xC8 DUP2 JUMP JUMPDEST PUSH2 0x2E4 PUSH2 0x3B2 CALLDATASIZE PUSH1 0x4 PUSH2 0x1975 JUMP JUMPDEST PUSH1 0x1 PUSH1 0x1 PUSH1 0xA0 SHL SUB AND PUSH0 SWAP1 DUP2 MSTORE PUSH1 0x20 DUP2 SWAP1 MSTORE PUSH1 0x40 SWAP1 KECCAK256 SLOAD SWAP1 JUMP JUMPDEST PUSH2 0x2DE PUSH2 0x3DA CALLDATASIZE PUSH1 0x4 PUSH2 0x19E3 JUMP JUMPDEST PUSH2 0x7B4 JUMP JUMPDEST PUSH2 0x2E4 PUSH2 0x3ED CALLDATASIZE PUSH1 0x4 PUSH2 0x1975 JUMP JUMPDEST PUSH2 0x7CD JUMP JUMPDEST PUSH2 0x2DE PUSH2 0x400 CALLDATASIZE PUSH1 0x4 PUSH2 0x1975 JUMP JUMPDEST PUSH2 0x7D7 JUMP JUMPDEST PUSH2 0x2DE PUSH2 0x8A6 JUMP JUMPDEST PUSH2 0x415 PUSH2 0x8D8 JUMP JUMPDEST PUSH1 0x40 MLOAD PUSH2 0x283 SWAP8 SWAP7 SWAP6 SWAP5 SWAP4 SWAP3 SWAP2 SWAP1 PUSH2 0x1A85 JUMP JUMPDEST PUSH2 0x2DE PUSH2 0x436 CALLDATASIZE PUSH1 0x4 PUSH2 0x1A44 JUMP JUMPDEST PUSH2 0x91A JUMP JUMPDEST PUSH2 0x2E4 PUSH10 0xD3C21BCECCEDA1000000 DUP2 JUMP JUMPDEST PUSH2 0x277 PUSH2 0x45A CALLDATASIZE PUSH1 0x4 PUSH2 0x1A5B JUMP JUMPDEST PUSH2 0x9DE JUMP JUMPDEST PUSH2 0x2B6 PUSH2 0xA08 JUMP JUMPDEST PUSH2 0x2E4 PUSH0 DUP1 MLOAD PUSH1 0x20 PUSH2 0x1CA7 DUP4 CODECOPY DUP2 MLOAD SWAP2 MSTORE DUP2 JUMP JUMPDEST PUSH2 0x2E4 PUSH0 DUP2 JUMP JUMPDEST PUSH2 0x277 PUSH2 0x490 CALLDATASIZE PUSH1 0x4 PUSH2 0x19E3 JUMP JUMPDEST PUSH2 0xA17 JUMP JUMPDEST PUSH2 0x2DE PUSH2 0x4A3 CALLDATASIZE PUSH1 0x4 PUSH2 0x1B1C JUMP JUMPDEST PUSH2 0xA24 JUMP JUMPDEST PUSH1 0xA SLOAD PUSH2 0x4BB SWAP1 PUSH1 0x1 PUSH1 0x1 PUSH1 0xA0 SHL SUB AND DUP2 JUMP JUMPDEST PUSH1 0x40 MLOAD PUSH1 0x1 PUSH1 0x1 PUSH1 0xA0 SHL SUB SWAP1 SWAP2 AND DUP2 MSTORE PUSH1 0x20 ADD PUSH2 0x283 JUMP JUMPDEST PUSH2 0x2DE PUSH2 0x4E1 CALLDATASIZE PUSH1 0x4 PUSH2 0x1A44 JUMP JUMPDEST PUSH2 0xA9B JUMP JUMPDEST PUSH2 0x2E4 PUSH32 0xE1DCBDB91DF27212A29BC27177C840CF2F819ECF2187432E1FAC86C2DD5DFCA9 DUP2 JUMP JUMPDEST PUSH1 0xC SLOAD PUSH2 0x277 SWAP1 PUSH1 0xFF AND DUP2 JUMP JUMPDEST PUSH2 0x2DE PUSH2 0x528 CALLDATASIZE PUSH1 0x4 PUSH2 0x1B55 JUMP JUMPDEST PUSH2 0xB36 JUMP JUMPDEST PUSH2 0x2E4 PUSH32 0x9F2DF0FED2C77648DE5860A4CC508CD0818C85B8B8A1AB4CEEEF8D981C8956A6 DUP2 JUMP JUMPDEST PUSH2 0x2DE PUSH2 0x562 CALLDATASIZE PUSH1 0x4 PUSH2 0x1A5B JUMP JUMPDEST PUSH2 0xC6C JUMP JUMPDEST PUSH2 0x2E4 PUSH2 0x575 CALLDATASIZE PUSH1 0x4 PUSH2 0x1BC2 JUMP JUMPDEST PUSH1 0x1 PUSH1 0x1 PUSH1 0xA0 SHL SUB SWAP2 DUP3 AND PUSH0 SWAP1 DUP2 MSTORE PUSH1 0x1 PUSH1 0x20 SWAP1 DUP2 MSTORE PUSH1 0x40 DUP1 DUP4 KECCAK256 SWAP4 SWAP1 SWAP5 AND DUP3 MSTORE SWAP2 SWAP1 SWAP2 MSTORE KECCAK256 SLOAD SWAP1 JUMP JUMPDEST PUSH2 0x2E4 PUSH32 0x65D7A28E3265B37A6474929F336521B332C1681B933F6CB9F3376673440D862A DUP2 JUMP JUMPDEST PUSH2 0x2DE PUSH2 0x5D4 CALLDATASIZE PUSH1 0x4 PUSH2 0x19E3 JUMP JUMPDEST PUSH2 0xC90 JUMP JUMPDEST PUSH0 PUSH1 0x1 PUSH1 0x1 PUSH1 0xE0 SHL SUB NOT DUP3 AND PUSH4 0x7965DB0B PUSH1 0xE0 SHL EQ DUP1 PUSH2 0x609 JUMPI POP PUSH4 0x1FFC9A7 PUSH1 0xE0 SHL PUSH1 0x1 PUSH1 0x1 PUSH1 0xE0 SHL SUB NOT DUP4 AND EQ JUMPDEST SWAP3 SWAP2 POP POP JUMP JUMPDEST PUSH1 0x60 PUSH1 0x3 DUP1 SLOAD PUSH2 0x61E SWAP1 PUSH2 0x1BEA JUMP JUMPDEST DUP1 PUSH1 0x1F ADD PUSH1 0x20 DUP1 SWAP2 DIV MUL PUSH1 0x20 ADD PUSH1 0x40 MLOAD SWAP1 DUP2 ADD PUSH1 0x40 MSTORE DUP1 SWAP3 SWAP2 SWAP1 DUP2 DUP2 MSTORE PUSH1 0x20 ADD DUP3 DUP1 SLOAD PUSH2 0x64A SWAP1 PUSH2 0x1BEA JUMP JUMPDEST DUP1 ISZERO PUSH2 0x695 JUMPI DUP1 PUSH1 0x1F LT PUSH2 0x66C JUMPI PUSH2 0x100 DUP1 DUP4 SLOAD DIV MUL DUP4 MSTORE SWAP2 PUSH1 0x20 ADD SWAP2 PUSH2 0x695 JUMP JUMPDEST DUP3 ADD SWAP2 SWAP1 PUSH0 MSTORE PUSH1 0x20 PUSH0 KECCAK256 SWAP1 JUMPDEST DUP2 SLOAD DUP2 MSTORE SWAP1 PUSH1 0x1 ADD SWAP1 PUSH1 0x20 ADD DUP1 DUP4 GT PUSH2 0x678 JUMPI DUP3 SWAP1 SUB PUSH1 0x1F AND DUP3 ADD SWAP2 JUMPDEST POP POP POP POP POP SWAP1 POP SWAP1 JUMP JUMPDEST PUSH0 CALLER PUSH2 0x6AC DUP2 DUP6 DUP6 PUSH2 0xE0E JUMP JUMPDEST POP PUSH1 0x1 SWAP4 SWAP3 POP POP POP JUMP JUMPDEST PUSH0 DUP1 MLOAD PUSH1 0x20 PUSH2 0x1CA7 DUP4 CODECOPY DUP2 MLOAD SWAP2 MSTORE PUSH2 0x6CD DUP2 PUSH2 0xE1B JUMP JUMPDEST POP PUSH1 0xC DUP1 SLOAD PUSH1 0xFF NOT DUP2 AND PUSH1 0xFF SWAP1 SWAP2 AND ISZERO OR SWAP1 SSTORE JUMP JUMPDEST PUSH0 CALLER PUSH2 0x6EF DUP6 DUP3 DUP6 PUSH2 0xE25 JUMP JUMPDEST PUSH2 0x6FA DUP6 DUP6 DUP6 PUSH2 0xE9B JUMP JUMPDEST POP PUSH1 0x1 SWAP5 SWAP4 POP POP POP POP JUMP JUMPDEST PUSH0 DUP3 DUP2 MSTORE PUSH1 0x9 PUSH1 0x20 MSTORE PUSH1 0x40 SWAP1 KECCAK256 PUSH1 0x1 ADD SLOAD PUSH2 0x71F DUP2 PUSH2 0xE1B JUMP JUMPDEST PUSH2 0x729 DUP4 DUP4 PUSH2 0xEF8 JUMP JUMPDEST POP POP POP POP JUMP JUMPDEST PUSH0 PUSH2 0x738 PUSH2 0xF89 JUMP JUMPDEST SWAP1 POP SWAP1 JUMP JUMPDEST PUSH1 0x1 PUSH1 0x1 PUSH1 0xA0 SHL SUB DUP2 AND CALLER EQ PUSH2 0x766 JUMPI PUSH1 0x40 MLOAD PUSH4 0x334BD919 PUSH1 0xE1 SHL DUP2 MSTORE PUSH1 0x4 ADD PUSH1 0x40 MLOAD DUP1 SWAP2 SUB SWAP1 REVERT JUMPDEST PUSH2 0x770 DUP3 DUP3 PUSH2 0x10B2 JUMP JUMPDEST POP POP POP JUMP JUMPDEST PUSH32 0x65D7A28E3265B37A6474929F336521B332C1681B933F6CB9F3376673440D862A PUSH2 0x79F DUP2 PUSH2 0xE1B JUMP JUMPDEST PUSH2 0x7A7 PUSH2 0x111D JUMP JUMPDEST POP JUMP JUMPDEST PUSH2 0x7A7 CALLER DUP3 PUSH2 0x116F JUMP JUMPDEST PUSH2 0x7BF DUP3 CALLER DUP4 PUSH2 0xE25 JUMP JUMPDEST PUSH2 0x7C9 DUP3 DUP3 PUSH2 0x116F JUMP JUMPDEST POP POP JUMP JUMPDEST PUSH0 PUSH2 0x609 DUP3 PUSH2 0x11A3 JUMP JUMPDEST PUSH32 0xE1DCBDB91DF27212A29BC27177C840CF2F819ECF2187432E1FAC86C2DD5DFCA9 PUSH2 0x801 DUP2 PUSH2 0xE1B JUMP JUMPDEST PUSH1 0x1 PUSH1 0x1 PUSH1 0xA0 SHL SUB DUP3 AND PUSH2 0x85C JUMPI PUSH1 0x40 MLOAD PUSH3 0x461BCD PUSH1 0xE5 SHL DUP2 MSTORE PUSH1 0x20 PUSH1 0x4 DUP3 ADD MSTORE PUSH1 0x17 PUSH1 0x24 DUP3 ADD MSTORE PUSH32 0x54726561737572792063616E6E6F74206265207A65726F000000000000000000 PUSH1 0x44 DUP3 ADD MSTORE PUSH1 0x64 ADD JUMPDEST PUSH1 0x40 MLOAD DUP1 SWAP2 SUB SWAP1 REVERT JUMPDEST PUSH1 0xA DUP1 SLOAD PUSH1 0x1 PUSH1 0x1 PUSH1 0xA0 SHL SUB NOT AND PUSH1 0x1 PUSH1 0x1 PUSH1 0xA0 SHL SUB DUP5 AND SWAP1 DUP2 OR SWAP1 SWAP2 SSTORE PUSH1 0x40 MLOAD PUSH32 0x7DAE230F18360D76A040C81F050AA14EB9D6DC7901B20FC5D855E2A20FE814D1 SWAP1 PUSH0 SWAP1 LOG2 POP POP JUMP JUMPDEST PUSH32 0x65D7A28E3265B37A6474929F336521B332C1681B933F6CB9F3376673440D862A PUSH2 0x8D0 DUP2 PUSH2 0xE1B JUMP JUMPDEST PUSH2 0x7A7 PUSH2 0x11C0 JUMP JUMPDEST PUSH0 PUSH1 0x60 DUP1 PUSH0 DUP1 PUSH0 PUSH1 0x60 PUSH2 0x8E9 PUSH2 0x11FD JUMP JUMPDEST PUSH2 0x8F1 PUSH2 0x122A JUMP JUMPDEST PUSH1 0x40 DUP1 MLOAD PUSH0 DUP1 DUP3 MSTORE PUSH1 0x20 DUP3 ADD SWAP1 SWAP3 MSTORE PUSH1 0xF PUSH1 0xF8 SHL SWAP12 SWAP4 SWAP11 POP SWAP2 SWAP9 POP CHAINID SWAP8 POP ADDRESS SWAP7 POP SWAP5 POP SWAP3 POP SWAP1 POP JUMP JUMPDEST PUSH32 0xE1DCBDB91DF27212A29BC27177C840CF2F819ECF2187432E1FAC86C2DD5DFCA9 PUSH2 0x944 DUP2 PUSH2 0xE1B JUMP JUMPDEST PUSH2 0x94C PUSH2 0x1257 JUMP JUMPDEST PUSH0 DUP3 GT PUSH2 0x99B JUMPI PUSH1 0x40 MLOAD PUSH3 0x461BCD PUSH1 0xE5 SHL DUP2 MSTORE PUSH1 0x20 PUSH1 0x4 DUP3 ADD MSTORE PUSH1 0x1D PUSH1 0x24 DUP3 ADD MSTORE PUSH32 0x416D6F756E74206D7573742062652067726561746572207468616E2030000000 PUSH1 0x44 DUP3 ADD MSTORE PUSH1 0x64 ADD PUSH2 0x853 JUMP JUMPDEST PUSH2 0x9A5 CALLER DUP4 PUSH2 0x116F JUMP JUMPDEST PUSH1 0x40 MLOAD DUP3 DUP2 MSTORE CALLER SWAP1 PUSH32 0xFD38818F5291BF0BB3A2A48AADC06BA8757865D1DABD804585338AAB3009DCB6 SWAP1 PUSH1 0x20 ADD PUSH1 0x40 MLOAD DUP1 SWAP2 SUB SWAP1 LOG2 POP POP JUMP JUMPDEST PUSH0 SWAP2 DUP3 MSTORE PUSH1 0x9 PUSH1 0x20 SWAP1 DUP2 MSTORE PUSH1 0x40 DUP1 DUP5 KECCAK256 PUSH1 0x1 PUSH1 0x1 PUSH1 0xA0 SHL SUB SWAP4 SWAP1 SWAP4 AND DUP5 MSTORE SWAP2 SWAP1 MSTORE SWAP1 KECCAK256 SLOAD PUSH1 0xFF AND SWAP1 JUMP JUMPDEST PUSH1 0x60 PUSH1 0x4 DUP1 SLOAD PUSH2 0x61E SWAP1 PUSH2 0x1BEA JUMP JUMPDEST PUSH0 CALLER PUSH2 0x6AC DUP2 DUP6 DUP6 PUSH2 0xE9B JUMP JUMPDEST PUSH0 DUP1 MLOAD PUSH1 0x20 PUSH2 0x1CA7 DUP4 CODECOPY DUP2 MLOAD SWAP2 MSTORE PUSH2 0xA3B DUP2 PUSH2 0xE1B JUMP JUMPDEST PUSH1 0x1 PUSH1 0x1 PUSH1 0xA0 SHL SUB DUP4 AND PUSH0 DUP2 DUP2 MSTORE PUSH1 0xD PUSH1 0x20 SWAP1 DUP2 MSTORE PUSH1 0x40 SWAP2 DUP3 SWAP1 KECCAK256 DUP1 SLOAD PUSH1 0xFF NOT AND DUP7 ISZERO ISZERO SWAP1 DUP2 OR SWAP1 SWAP2 SSTORE SWAP2 MLOAD SWAP2 DUP3 MSTORE PUSH32 0x36EE46FA09C2419F7BCF8135C2BDD56BC882BE141CB075961717003BED74367D SWAP2 ADD JUMPDEST PUSH1 0x40 MLOAD DUP1 SWAP2 SUB SWAP1 LOG2 POP POP POP JUMP JUMPDEST PUSH0 DUP1 MLOAD PUSH1 0x20 PUSH2 0x1CA7 DUP4 CODECOPY DUP2 MLOAD SWAP2 MSTORE PUSH2 0xAB2 DUP2 PUSH2 0xE1B JUMP JUMPDEST PUSH2 0x1F4 DUP3 GT ISZERO PUSH2 0xAFA JUMPI PUSH1 0x40 MLOAD PUSH3 0x461BCD PUSH1 0xE5 SHL DUP2 MSTORE PUSH1 0x20 PUSH1 0x4 DUP3 ADD MSTORE PUSH1 0x13 PUSH1 0x24 DUP3 ADD MSTORE PUSH19 0x5461782065786365656473206D6178696D756D PUSH1 0x68 SHL PUSH1 0x44 DUP3 ADD MSTORE PUSH1 0x64 ADD PUSH2 0x853 JUMP JUMPDEST PUSH1 0xB DUP3 SWAP1 SSTORE PUSH1 0x40 MLOAD DUP3 DUP2 MSTORE PUSH32 0x35AD15E7F5E4A16B548E8916BD02C51847DDE8D106F334B4EDAAACF140E43C91 SWAP1 PUSH1 0x20 ADD PUSH1 0x40 MLOAD DUP1 SWAP2 SUB SWAP1 LOG1 POP POP JUMP JUMPDEST DUP4 TIMESTAMP GT ISZERO PUSH2 0xB5A JUMPI PUSH1 0x40 MLOAD PUSH4 0x313C8981 PUSH1 0xE1 SHL DUP2 MSTORE PUSH1 0x4 DUP2 ADD DUP6 SWAP1 MSTORE PUSH1 0x24 ADD PUSH2 0x853 JUMP JUMPDEST PUSH0 PUSH32 0x6E71EDAE12B1B97F4D1F60370FEF10105FA2FAAE0126114A169C64845D6126C9 DUP9 DUP9 DUP9 PUSH2 0xBA5 DUP13 PUSH1 0x1 PUSH1 0x1 PUSH1 0xA0 SHL SUB AND PUSH0 SWAP1 DUP2 MSTORE PUSH1 0x8 PUSH1 0x20 MSTORE PUSH1 0x40 SWAP1 KECCAK256 DUP1 SLOAD PUSH1 0x1 DUP2 ADD SWAP1 SWAP2 SSTORE SWAP1 JUMP JUMPDEST PUSH1 0x40 DUP1 MLOAD PUSH1 0x20 DUP2 ADD SWAP7 SWAP1 SWAP7 MSTORE PUSH1 0x1 PUSH1 0x1 PUSH1 0xA0 SHL SUB SWAP5 DUP6 AND SWAP1 DUP7 ADD MSTORE SWAP3 SWAP1 SWAP2 AND PUSH1 0x60 DUP5 ADD MSTORE PUSH1 0x80 DUP4 ADD MSTORE PUSH1 0xA0 DUP3 ADD MSTORE PUSH1 0xC0 DUP2 ADD DUP7 SWAP1 MSTORE PUSH1 0xE0 ADD PUSH1 0x40 MLOAD PUSH1 0x20 DUP2 DUP4 SUB SUB DUP2 MSTORE SWAP1 PUSH1 0x40 MSTORE DUP1 MLOAD SWAP1 PUSH1 0x20 ADD KECCAK256 SWAP1 POP PUSH0 PUSH2 0xBFF DUP3 PUSH2 0x127D JUMP JUMPDEST SWAP1 POP PUSH0 PUSH2 0xC0E DUP3 DUP8 DUP8 DUP8 PUSH2 0x12A9 JUMP JUMPDEST SWAP1 POP DUP10 PUSH1 0x1 PUSH1 0x1 PUSH1 0xA0 SHL SUB AND DUP2 PUSH1 0x1 PUSH1 0x1 PUSH1 0xA0 SHL SUB AND EQ PUSH2 0xC55 JUMPI PUSH1 0x40 MLOAD PUSH4 0x25C00723 PUSH1 0xE1 SHL DUP2 MSTORE PUSH1 0x1 PUSH1 0x1 PUSH1 0xA0 SHL SUB DUP1 DUP4 AND PUSH1 0x4 DUP4 ADD MSTORE DUP12 AND PUSH1 0x24 DUP3 ADD MSTORE PUSH1 0x44 ADD PUSH2 0x853 JUMP JUMPDEST PUSH2 0xC60 DUP11 DUP11 DUP11 PUSH2 0xE0E JUMP JUMPDEST POP POP POP POP POP POP POP POP POP POP JUMP JUMPDEST PUSH0 DUP3 DUP2 MSTORE PUSH1 0x9 PUSH1 0x20 MSTORE PUSH1 0x40 SWAP1 KECCAK256 PUSH1 0x1 ADD SLOAD PUSH2 0xC86 DUP2 PUSH2 0xE1B JUMP JUMPDEST PUSH2 0x729 DUP4 DUP4 PUSH2 0x10B2 JUMP JUMPDEST PUSH32 0x9F2DF0FED2C77648DE5860A4CC508CD0818C85B8B8A1AB4CEEEF8D981C8956A6 PUSH2 0xCBA DUP2 PUSH2 0xE1B JUMP JUMPDEST PUSH2 0xCC2 PUSH2 0x1257 JUMP JUMPDEST PUSH1 0x1 PUSH1 0x1 PUSH1 0xA0 SHL SUB DUP4 AND PUSH2 0xD18 JUMPI PUSH1 0x40 MLOAD PUSH3 0x461BCD PUSH1 0xE5 SHL DUP2 MSTORE PUSH1 0x20 PUSH1 0x4 DUP3 ADD MSTORE PUSH1 0x1B PUSH1 0x24 DUP3 ADD MSTORE PUSH32 0x43616E6E6F74206D696E7420746F207A65726F20616464726573730000000000 PUSH1 0x44 DUP3 ADD MSTORE PUSH1 0x64 ADD PUSH2 0x853 JUMP JUMPDEST PUSH0 DUP3 GT PUSH2 0xD67 JUMPI PUSH1 0x40 MLOAD PUSH3 0x461BCD PUSH1 0xE5 SHL DUP2 MSTORE PUSH1 0x20 PUSH1 0x4 DUP3 ADD MSTORE PUSH1 0x1D PUSH1 0x24 DUP3 ADD MSTORE PUSH32 0x416D6F756E74206D7573742062652067726561746572207468616E2030000000 PUSH1 0x44 DUP3 ADD MSTORE PUSH1 0x64 ADD PUSH2 0x853 JUMP JUMPDEST PUSH10 0xD3C21BCECCEDA1000000 DUP3 PUSH2 0xD7C PUSH1 0x2 SLOAD SWAP1 JUMP JUMPDEST PUSH2 0xD86 SWAP2 SWAP1 PUSH2 0x1C36 JUMP JUMPDEST GT ISZERO PUSH2 0xDC9 JUMPI PUSH1 0x40 MLOAD PUSH3 0x461BCD PUSH1 0xE5 SHL DUP2 MSTORE PUSH1 0x20 PUSH1 0x4 DUP3 ADD MSTORE PUSH1 0x12 PUSH1 0x24 DUP3 ADD MSTORE PUSH18 0x45786365656473206D617820737570706C79 PUSH1 0x70 SHL PUSH1 0x44 DUP3 ADD MSTORE PUSH1 0x64 ADD PUSH2 0x853 JUMP JUMPDEST PUSH2 0xDD3 DUP4 DUP4 PUSH2 0x12D5 JUMP JUMPDEST DUP3 PUSH1 0x1 PUSH1 0x1 PUSH1 0xA0 SHL SUB AND PUSH32 0x3F2C9D57C068687834F0DE942A9BABB9E5ACAB57D516D3480A3C16EE165A4273 DUP4 PUSH1 0x40 MLOAD PUSH2 0xA8E SWAP2 DUP2 MSTORE PUSH1 0x20 ADD SWAP1 JUMP JUMPDEST PUSH2 0x770 DUP4 DUP4 DUP4 PUSH1 0x1 PUSH2 0x1309 JUMP JUMPDEST PUSH2 0x7A7 DUP2 CALLER PUSH2 0x13DB JUMP JUMPDEST PUSH1 0x1 PUSH1 0x1 PUSH1 0xA0 SHL SUB DUP4 DUP2 AND PUSH0 SWAP1 DUP2 MSTORE PUSH1 0x1 PUSH1 0x20 SWAP1 DUP2 MSTORE PUSH1 0x40 DUP1 DUP4 KECCAK256 SWAP4 DUP7 AND DUP4 MSTORE SWAP3 SWAP1 MSTORE KECCAK256 SLOAD PUSH0 NOT DUP2 LT ISZERO PUSH2 0x729 JUMPI DUP2 DUP2 LT ISZERO PUSH2 0xE8D JUMPI PUSH1 0x40 MLOAD PUSH4 0x7DC7A0D9 PUSH1 0xE1 SHL DUP2 MSTORE PUSH1 0x1 PUSH1 0x1 PUSH1 0xA0 SHL SUB DUP5 AND PUSH1 0x4 DUP3 ADD MSTORE PUSH1 0x24 DUP2 ADD DUP3 SWAP1 MSTORE PUSH1 0x44 DUP2 ADD DUP4 SWAP1 MSTORE PUSH1 0x64 ADD PUSH2 0x853 JUMP JUMPDEST PUSH2 0x729 DUP5 DUP5 DUP5 DUP5 SUB PUSH0 PUSH2 0x1309 JUMP JUMPDEST PUSH1 0x1 PUSH1 0x1 PUSH1 0xA0 SHL SUB DUP4 AND PUSH2 0xEC4 JUMPI PUSH1 0x40 MLOAD PUSH4 0x4B637E8F PUSH1 0xE1 SHL DUP2 MSTORE PUSH0 PUSH1 0x4 DUP3 ADD MSTORE PUSH1 0x24 ADD PUSH2 0x853 JUMP JUMPDEST PUSH1 0x1 PUSH1 0x1 PUSH1 0xA0 SHL SUB DUP3 AND PUSH2 0xEED JUMPI PUSH1 0x40 MLOAD PUSH4 0xEC442F05 PUSH1 0xE0 SHL DUP2 MSTORE PUSH0 PUSH1 0x4 DUP3 ADD MSTORE PUSH1 0x24 ADD PUSH2 0x853 JUMP JUMPDEST PUSH2 0x770 DUP4 DUP4 DUP4 PUSH2 0x1414 JUMP JUMPDEST PUSH0 PUSH2 0xF03 DUP4 DUP4 PUSH2 0x9DE JUMP JUMPDEST PUSH2 0xF82 JUMPI PUSH0 DUP4 DUP2 MSTORE PUSH1 0x9 PUSH1 0x20 SWAP1 DUP2 MSTORE PUSH1 0x40 DUP1 DUP4 KECCAK256 PUSH1 0x1 PUSH1 0x1 PUSH1 0xA0 SHL SUB DUP7 AND DUP5 MSTORE SWAP1 SWAP2 MSTORE SWAP1 KECCAK256 DUP1 SLOAD PUSH1 0xFF NOT AND PUSH1 0x1 OR SWAP1 SSTORE PUSH2 0xF3A CALLER SWAP1 JUMP JUMPDEST PUSH1 0x1 PUSH1 0x1 PUSH1 0xA0 SHL SUB AND DUP3 PUSH1 0x1 PUSH1 0x1 PUSH1 0xA0 SHL SUB AND DUP5 PUSH32 0x2F8788117E7EFF1D82E926EC794901D17C78024A50270940304540A733656F0D PUSH1 0x40 MLOAD PUSH1 0x40 MLOAD DUP1 SWAP2 SUB SWAP1 LOG4 POP PUSH1 0x1 PUSH2 0x609 JUMP JUMPDEST POP PUSH0 PUSH2 0x609 JUMP JUMPDEST PUSH0 ADDRESS PUSH1 0x1 PUSH1 0x1 PUSH1 0xA0 SHL SUB PUSH32 0x0 AND EQ DUP1 ISZERO PUSH2 0xFE1 JUMPI POP PUSH32 0x0 CHAINID EQ JUMPDEST ISZERO PUSH2 0x100B JUMPI POP PUSH32 0x0 SWAP1 JUMP JUMPDEST PUSH2 0x738 PUSH1 0x40 DUP1 MLOAD PUSH32 0x8B73C3C69BB8FE3D512ECC4CF759CC79239F7B179B0FFACAA9A75D522B39400F PUSH1 0x20 DUP3 ADD MSTORE PUSH32 0x0 SWAP2 DUP2 ADD SWAP2 SWAP1 SWAP2 MSTORE PUSH32 0x0 PUSH1 0x60 DUP3 ADD MSTORE CHAINID PUSH1 0x80 DUP3 ADD MSTORE ADDRESS PUSH1 0xA0 DUP3 ADD MSTORE PUSH0 SWAP1 PUSH1 0xC0 ADD PUSH1 0x40 MLOAD PUSH1 0x20 DUP2 DUP4 SUB SUB DUP2 MSTORE SWAP1 PUSH1 0x40 MSTORE DUP1 MLOAD SWAP1 PUSH1 0x20 ADD KECCAK256 SWAP1 POP SWAP1 JUMP JUMPDEST PUSH0 PUSH2 0x10BD DUP4 DUP4 PUSH2 0x9DE JUMP JUMPDEST ISZERO PUSH2 0xF82 JUMPI PUSH0 DUP4 DUP2 MSTORE PUSH1 0x9 PUSH1 0x20 SWAP1 DUP2 MSTORE PUSH1 0x40 DUP1 DUP4 KECCAK256 PUSH1 0x1 PUSH1 0x1 PUSH1 0xA0 SHL SUB DUP7 AND DUP1 DUP6 MSTORE SWAP3 MSTORE DUP1 DUP4 KECCAK256 DUP1 SLOAD PUSH1 0xFF NOT AND SWAP1 SSTORE MLOAD CALLER SWAP3 DUP7 SWAP2 PUSH32 0xF6391F5C32D9C69D2A47EA670B442974B53935D1EDC7FD64EB21E047A839171B SWAP2 SWAP1 LOG4 POP PUSH1 0x1 PUSH2 0x609 JUMP JUMPDEST PUSH2 0x1125 PUSH2 0x1543 JUMP JUMPDEST PUSH1 0x5 DUP1 SLOAD PUSH1 0xFF NOT AND SWAP1 SSTORE PUSH32 0x5DB9EE0A495BF2E6FF9C91A7834C1BA4FDD244A5E8AA4E537BD38AEAE4B073AA CALLER JUMPDEST PUSH1 0x40 MLOAD PUSH1 0x1 PUSH1 0x1 PUSH1 0xA0 SHL SUB SWAP1 SWAP2 AND DUP2 MSTORE PUSH1 0x20 ADD PUSH1 0x40 MLOAD DUP1 SWAP2 SUB SWAP1 LOG1 JUMP JUMPDEST PUSH1 0x1 PUSH1 0x1 PUSH1 0xA0 SHL SUB DUP3 AND PUSH2 0x1198 JUMPI PUSH1 0x40 MLOAD PUSH4 0x4B637E8F PUSH1 0xE1 SHL DUP2 MSTORE PUSH0 PUSH1 0x4 DUP3 ADD MSTORE PUSH1 0x24 ADD PUSH2 0x853 JUMP JUMPDEST PUSH2 0x7C9 DUP3 PUSH0 DUP4 PUSH2 0x1414 JUMP JUMPDEST PUSH1 0x1 PUSH1 0x1 PUSH1 0xA0 SHL SUB DUP2 AND PUSH0 SWAP1 DUP2 MSTORE PUSH1 0x8 PUSH1 0x20 MSTORE PUSH1 0x40 DUP2 KECCAK256 SLOAD PUSH2 0x609 JUMP JUMPDEST PUSH2 0x11C8 PUSH2 0x1257 JUMP JUMPDEST PUSH1 0x5 DUP1 SLOAD PUSH1 0xFF NOT AND PUSH1 0x1 OR SWAP1 SSTORE PUSH32 0x62E78CEA01BEE320CD4E420270B5EA74000D11B0C9F74754EBDBFC544B05A258 PUSH2 0x1152 CALLER SWAP1 JUMP JUMPDEST PUSH1 0x60 PUSH2 0x738 PUSH32 0x0 PUSH1 0x6 PUSH2 0x1566 JUMP JUMPDEST PUSH1 0x60 PUSH2 0x738 PUSH32 0x0 PUSH1 0x7 PUSH2 0x1566 JUMP JUMPDEST PUSH1 0x5 SLOAD PUSH1 0xFF AND ISZERO PUSH2 0x127B JUMPI PUSH1 0x40 MLOAD PUSH4 0xD93C0665 PUSH1 0xE0 SHL DUP2 MSTORE PUSH1 0x4 ADD PUSH1 0x40 MLOAD DUP1 SWAP2 SUB SWAP1 REVERT JUMPDEST JUMP JUMPDEST PUSH0 PUSH2 0x609 PUSH2 0x1289 PUSH2 0xF89 JUMP JUMPDEST DUP4 PUSH1 0x40 MLOAD PUSH2 0x1901 PUSH1 0xF0 SHL DUP2 MSTORE PUSH1 0x2 DUP2 ADD SWAP3 SWAP1 SWAP3 MSTORE PUSH1 0x22 DUP3 ADD MSTORE PUSH1 0x42 SWAP1 KECCAK256 SWAP1 JUMP JUMPDEST PUSH0 DUP1 PUSH0 DUP1 PUSH2 0x12B9 DUP9 DUP9 DUP9 DUP9 PUSH2 0x160F JUMP JUMPDEST SWAP3 POP SWAP3 POP SWAP3 POP PUSH2 0x12C9 DUP3 DUP3 PUSH2 0x16D7 JUMP JUMPDEST POP SWAP1 SWAP7 SWAP6 POP POP POP POP POP POP JUMP JUMPDEST PUSH1 0x1 PUSH1 0x1 PUSH1 0xA0 SHL SUB DUP3 AND PUSH2 0x12FE JUMPI PUSH1 0x40 MLOAD PUSH4 0xEC442F05 PUSH1 0xE0 SHL DUP2 MSTORE PUSH0 PUSH1 0x4 DUP3 ADD MSTORE PUSH1 0x24 ADD PUSH2 0x853 JUMP JUMPDEST PUSH2 0x7C9 PUSH0 DUP4 DUP4 PUSH2 0x1414 JUMP JUMPDEST PUSH1 0x1 PUSH1 0x1 PUSH1 0xA0 SHL SUB DUP5 AND PUSH2 0x1332 JUMPI PUSH1 0x40 MLOAD PUSH4 0xE602DF05 PUSH1 0xE0 SHL DUP2 MSTORE PUSH0 PUSH1 0x4 DUP3 ADD MSTORE PUSH1 0x24 ADD PUSH2 0x853 JUMP JUMPDEST PUSH1 0x1 PUSH1 0x1 PUSH1 0xA0 SHL SUB DUP4 AND PUSH2 0x135B JUMPI PUSH1 0x40 MLOAD PUSH4 0x4A1406B1 PUSH1 0xE1 SHL DUP2 MSTORE PUSH0 PUSH1 0x4 DUP3 ADD MSTORE PUSH1 0x24 ADD PUSH2 0x853 JUMP JUMPDEST PUSH1 0x1 PUSH1 0x1 PUSH1 0xA0 SHL SUB DUP1 DUP6 AND PUSH0 SWAP1 DUP2 MSTORE PUSH1 0x1 PUSH1 0x20 SWAP1 DUP2 MSTORE PUSH1 0x40 DUP1 DUP4 KECCAK256 SWAP4 DUP8 AND DUP4 MSTORE SWAP3 SWAP1 MSTORE KECCAK256 DUP3 SWAP1 SSTORE DUP1 ISZERO PUSH2 0x729 JUMPI DUP3 PUSH1 0x1 PUSH1 0x1 PUSH1 0xA0 SHL SUB AND DUP5 PUSH1 0x1 PUSH1 0x1 PUSH1 0xA0 SHL SUB AND PUSH32 0x8C5BE1E5EBEC7D5BD14F71427D1E84F3DD0314C0F7B2291E5B200AC8C7C3B925 DUP5 PUSH1 0x40 MLOAD PUSH2 0x13CD SWAP2 DUP2 MSTORE PUSH1 0x20 ADD SWAP1 JUMP JUMPDEST PUSH1 0x40 MLOAD DUP1 SWAP2 SUB SWAP1 LOG3 POP POP POP POP JUMP JUMPDEST PUSH2 0x13E5 DUP3 DUP3 PUSH2 0x9DE JUMP JUMPDEST PUSH2 0x7C9 JUMPI PUSH1 0x40 MLOAD PUSH4 0xE2517D3F PUSH1 0xE0 SHL DUP2 MSTORE PUSH1 0x1 PUSH1 0x1 PUSH1 0xA0 SHL SUB DUP3 AND PUSH1 0x4 DUP3 ADD MSTORE PUSH1 0x24 DUP2 ADD DUP4 SWAP1 MSTORE PUSH1 0x44 ADD PUSH2 0x853 JUMP JUMPDEST PUSH2 0x141C PUSH2 0x1257 JUMP JUMPDEST PUSH1 0xC SLOAD PUSH1 0xFF AND DUP1 ISZERO PUSH2 0x1436 JUMPI POP PUSH1 0x1 PUSH1 0x1 PUSH1 0xA0 SHL SUB DUP4 AND ISZERO ISZERO JUMPDEST DUP1 ISZERO PUSH2 0x144A JUMPI POP PUSH1 0x1 PUSH1 0x1 PUSH1 0xA0 SHL SUB DUP3 AND ISZERO ISZERO JUMPDEST DUP1 ISZERO PUSH2 0x146E JUMPI POP PUSH1 0x1 PUSH1 0x1 PUSH1 0xA0 SHL SUB DUP4 AND PUSH0 SWAP1 DUP2 MSTORE PUSH1 0xD PUSH1 0x20 MSTORE PUSH1 0x40 SWAP1 KECCAK256 SLOAD PUSH1 0xFF AND ISZERO JUMPDEST DUP1 ISZERO PUSH2 0x1492 JUMPI POP PUSH1 0x1 PUSH1 0x1 PUSH1 0xA0 SHL SUB DUP3 AND PUSH0 SWAP1 DUP2 MSTORE PUSH1 0xD PUSH1 0x20 MSTORE PUSH1 0x40 SWAP1 KECCAK256 SLOAD PUSH1 0xFF AND ISZERO JUMPDEST ISZERO PUSH2 0x1538 JUMPI PUSH0 PUSH2 0x2710 PUSH1 0xB SLOAD DUP4 PUSH2 0x14A9 SWAP2 SWAP1 PUSH2 0x1C49 JUMP JUMPDEST PUSH2 0x14B3 SWAP2 SWAP1 PUSH2 0x1C60 JUMP JUMPDEST SWAP1 POP PUSH0 PUSH2 0x14C0 DUP3 DUP5 PUSH2 0x1C7F JUMP JUMPDEST SWAP1 POP DUP2 ISZERO PUSH2 0x1526 JUMPI PUSH1 0xA SLOAD PUSH2 0x14E0 SWAP1 DUP7 SWAP1 PUSH1 0x1 PUSH1 0x1 PUSH1 0xA0 SHL SUB AND DUP5 PUSH2 0x178F JUMP JUMPDEST PUSH1 0xA SLOAD PUSH1 0x40 MLOAD DUP4 DUP2 MSTORE PUSH1 0x1 PUSH1 0x1 PUSH1 0xA0 SHL SUB SWAP2 DUP3 AND SWAP2 DUP8 AND SWAP1 PUSH32 0xDA0FA25C56DE3E79F428C5B2EB506EFD2656C74122C598D4274EDFB9CEDA33E8 SWAP1 PUSH1 0x20 ADD PUSH1 0x40 MLOAD DUP1 SWAP2 SUB SWAP1 LOG3 JUMPDEST PUSH2 0x1531 DUP6 DUP6 DUP4 PUSH2 0x178F JUMP JUMPDEST POP POP POP POP POP JUMP JUMPDEST PUSH2 0x770 DUP4 DUP4 DUP4 PUSH2 0x178F JUMP JUMPDEST PUSH1 0x5 SLOAD PUSH1 0xFF AND PUSH2 0x127B JUMPI PUSH1 0x40 MLOAD PUSH4 0x8DFC202B PUSH1 0xE0 SHL DUP2 MSTORE PUSH1 0x4 ADD PUSH1 0x40 MLOAD DUP1 SWAP2 SUB SWAP1 REVERT JUMPDEST PUSH1 0x60 PUSH1 0xFF DUP4 EQ PUSH2 0x1580 JUMPI PUSH2 0x1579 DUP4 PUSH2 0x17A2 JUMP JUMPDEST SWAP1 POP PUSH2 0x609 JUMP JUMPDEST DUP2 DUP1 SLOAD PUSH2 0x158C SWAP1 PUSH2 0x1BEA JUMP JUMPDEST DUP1 PUSH1 0x1F ADD PUSH1 0x20 DUP1 SWAP2 DIV MUL PUSH1 0x20 ADD PUSH1 0x40 MLOAD SWAP1 DUP2 ADD PUSH1 0x40 MSTORE DUP1 SWAP3 SWAP2 SWAP1 DUP2 DUP2 MSTORE PUSH1 0x20 ADD DUP3 DUP1 SLOAD PUSH2 0x15B8 SWAP1 PUSH2 0x1BEA JUMP JUMPDEST DUP1 ISZERO PUSH2 0x1603 JUMPI DUP1 PUSH1 0x1F LT PUSH2 0x15DA JUMPI PUSH2 0x100 DUP1 DUP4 SLOAD DIV MUL DUP4 MSTORE SWAP2 PUSH1 0x20 ADD SWAP2 PUSH2 0x1603 JUMP JUMPDEST DUP3 ADD SWAP2 SWAP1 PUSH0 MSTORE PUSH1 0x20 PUSH0 KECCAK256 SWAP1 JUMPDEST DUP2 SLOAD DUP2 MSTORE SWAP1 PUSH1 0x1 ADD SWAP1 PUSH1 0x20 ADD DUP1 DUP4 GT PUSH2 0x15E6 JUMPI DUP3 SWAP1 SUB PUSH1 0x1F AND DUP3 ADD SWAP2 JUMPDEST POP POP POP POP POP SWAP1 POP PUSH2 0x609 JUMP JUMPDEST PUSH0 DUP1 DUP1 PUSH32 0x7FFFFFFFFFFFFFFFFFFFFFFFFFFFFFFF5D576E7357A4501DDFE92F46681B20A0 DUP5 GT ISZERO PUSH2 0x1648 JUMPI POP PUSH0 SWAP2 POP PUSH1 0x3 SWAP1 POP DUP3 PUSH2 0x16CD JUMP JUMPDEST PUSH1 0x40 DUP1 MLOAD PUSH0 DUP1 DUP3 MSTORE PUSH1 0x20 DUP3 ADD DUP1 DUP5 MSTORE DUP11 SWAP1 MSTORE PUSH1 0xFF DUP10 AND SWAP3 DUP3 ADD SWAP3 SWAP1 SWAP3 MSTORE PUSH1 0x60 DUP2 ADD DUP8 SWAP1 MSTORE PUSH1 0x80 DUP2 ADD DUP7 SWAP1 MSTORE PUSH1 0x1 SWAP1 PUSH1 0xA0 ADD PUSH1 0x20 PUSH1 0x40 MLOAD PUSH1 0x20 DUP2 SUB SWAP1 DUP1 DUP5 SUB SWAP1 DUP6 GAS STATICCALL ISZERO DUP1 ISZERO PUSH2 0x1699 JUMPI RETURNDATASIZE PUSH0 DUP1 RETURNDATACOPY RETURNDATASIZE PUSH0 REVERT JUMPDEST POP POP PUSH1 0x40 MLOAD PUSH1 0x1F NOT ADD MLOAD SWAP2 POP POP PUSH1 0x1 PUSH1 0x1 PUSH1 0xA0 SHL SUB DUP2 AND PUSH2 0x16C4 JUMPI POP PUSH0 SWAP3 POP PUSH1 0x1 SWAP2 POP DUP3 SWAP1 POP PUSH2 0x16CD JUMP JUMPDEST SWAP3 POP PUSH0 SWAP2 POP DUP2 SWAP1 POP JUMPDEST SWAP5 POP SWAP5 POP SWAP5 SWAP2 POP POP JUMP JUMPDEST PUSH0 DUP3 PUSH1 0x3 DUP2 GT ISZERO PUSH2 0x16EA JUMPI PUSH2 0x16EA PUSH2 0x1C92 JUMP JUMPDEST SUB PUSH2 0x16F3 JUMPI POP POP JUMP JUMPDEST PUSH1 0x1 DUP3 PUSH1 0x3 DUP2 GT ISZERO PUSH2 0x1707 JUMPI PUSH2 0x1707 PUSH2 0x1C92 JUMP JUMPDEST SUB PUSH2 0x1725 JUMPI PUSH1 0x40 MLOAD PUSH4 0xF645EEDF PUSH1 0xE0 SHL DUP2 MSTORE PUSH1 0x4 ADD PUSH1 0x40 MLOAD DUP1 SWAP2 SUB SWAP1 REVERT JUMPDEST PUSH1 0x2 DUP3 PUSH1 0x3 DUP2 GT ISZERO PUSH2 0x1739 JUMPI PUSH2 0x1739 PUSH2 0x1C92 JUMP JUMPDEST SUB PUSH2 0x175A JUMPI PUSH1 0x40 MLOAD PUSH4 0xFCE698F7 PUSH1 0xE0 SHL DUP2 MSTORE PUSH1 0x4 DUP2 ADD DUP3 SWAP1 MSTORE PUSH1 0x24 ADD PUSH2 0x853 JUMP JUMPDEST PUSH1 0x3 DUP3 PUSH1 0x3 DUP2 GT ISZERO PUSH2 0x176E JUMPI PUSH2 0x176E PUSH2 0x1C92 JUMP JUMPDEST SUB PUSH2 0x7C9 JUMPI PUSH1 0x40 MLOAD PUSH4 0x35E2F383 PUSH1 0xE2 SHL DUP2 MSTORE PUSH1 0x4 DUP2 ADD DUP3 SWAP1 MSTORE PUSH1 0x24 ADD PUSH2 0x853 JUMP JUMPDEST PUSH2 0x1797 PUSH2 0x1257 JUMP JUMPDEST PUSH2 0x770 DUP4 DUP4 DUP4 PUSH2 0x17DF JUMP JUMPDEST PUSH1 0x60 PUSH0 PUSH2 0x17AE DUP4 PUSH2 0x1905 JUMP JUMPDEST PUSH1 0x40 DUP1 MLOAD PUSH1 0x20 DUP1 DUP3 MSTORE DUP2 DUP4 ADD SWAP1 SWAP3 MSTORE SWAP2 SWAP3 POP PUSH0 SWAP2 SWAP1 PUSH1 0x20 DUP3 ADD DUP2 DUP1 CALLDATASIZE DUP4 CALLDATACOPY POP POP POP SWAP2 DUP3 MSTORE POP PUSH1 0x20 DUP2 ADD SWAP3 SWAP1 SWAP3 MSTORE POP SWAP1 JUMP JUMPDEST PUSH1 0x1 PUSH1 0x1 PUSH1 0xA0 SHL SUB DUP4 AND PUSH2 0x1809 JUMPI DUP1 PUSH1 0x2 PUSH0 DUP3 DUP3 SLOAD PUSH2 0x17FE SWAP2 SWAP1 PUSH2 0x1C36 JUMP JUMPDEST SWAP1 SWAP2 SSTORE POP PUSH2 0x1879 SWAP1 POP JUMP JUMPDEST PUSH1 0x1 PUSH1 0x1 PUSH1 0xA0 SHL SUB DUP4 AND PUSH0 SWAP1 DUP2 MSTORE PUSH1 0x20 DUP2 SWAP1 MSTORE PUSH1 0x40 SWAP1 KECCAK256 SLOAD DUP2 DUP2 LT ISZERO PUSH2 0x185B JUMPI PUSH1 0x40 MLOAD PUSH4 0x391434E3 PUSH1 0xE2 SHL DUP2 MSTORE PUSH1 0x1 PUSH1 0x1 PUSH1 0xA0 SHL SUB DUP6 AND PUSH1 0x4 DUP3 ADD MSTORE PUSH1 0x24 DUP2 ADD DUP3 SWAP1 MSTORE PUSH1 0x44 DUP2 ADD DUP4 SWAP1 MSTORE PUSH1 0x64 ADD PUSH2 0x853 JUMP JUMPDEST PUSH1 0x1 PUSH1 0x1 PUSH1 0xA0 SHL SUB DUP5 AND PUSH0 SWAP1 DUP2 MSTORE PUSH1 0x20 DUP2 SWAP1 MSTORE PUSH1 0x40 SWAP1 KECCAK256 SWAP1 DUP3 SWAP1 SUB SWAP1 SSTORE JUMPDEST PUSH1 0x1 PUSH1 0x1 PUSH1 0xA0 SHL SUB DUP3 AND PUSH2 0x1895 JUMPI PUSH1 0x2 DUP1 SLOAD DUP3 SWAP1 SUB SWAP1 SSTORE PUSH2 0x18B3 JUMP JUMPDEST PUSH1 0x1 PUSH1 0x1 PUSH1 0xA0 SHL SUB DUP3 AND PUSH0 SWAP1 DUP2 MSTORE PUSH1 0x20 DUP2 SWAP1 MSTORE PUSH1 0x40 SWAP1 KECCAK256 DUP1 SLOAD DUP3 ADD SWAP1 SSTORE JUMPDEST DUP2 PUSH1 0x1 PUSH1 0x1 PUSH1 0xA0 SHL SUB AND DUP4 PUSH1 0x1 PUSH1 0x1 PUSH1 0xA0 SHL SUB AND PUSH32 0xDDF252AD1BE2C89B69C2B068FC378DAA952BA7F163C4A11628F55A4DF523B3EF DUP4 PUSH1 0x40 MLOAD PUSH2 0x18F8 SWAP2 DUP2 MSTORE PUSH1 0x20 ADD SWAP1 JUMP JUMPDEST PUSH1 0x40 MLOAD DUP1 SWAP2 SUB SWAP1 LOG3 POP POP POP JUMP JUMPDEST PUSH0 PUSH1 0xFF DUP3 AND PUSH1 0x1F DUP2 GT ISZERO PUSH2 0x609 JUMPI PUSH1 0x40 MLOAD PUSH4 0x2CD44AC3 PUSH1 0xE2 SHL DUP2 MSTORE PUSH1 0x4 ADD PUSH1 0x40 MLOAD DUP1 SWAP2 SUB SWAP1 REVERT JUMPDEST PUSH0 PUSH1 0x20 DUP3 DUP5 SUB SLT ISZERO PUSH2 0x193C JUMPI PUSH0 DUP1 REVERT JUMPDEST DUP2 CALLDATALOAD PUSH1 0x1 PUSH1 0x1 PUSH1 0xE0 SHL SUB NOT DUP2 AND DUP2 EQ PUSH2 0x1953 JUMPI PUSH0 DUP1 REVERT JUMPDEST SWAP4 SWAP3 POP POP POP JUMP JUMPDEST DUP1 CALLDATALOAD PUSH1 0x1 PUSH1 0x1 PUSH1 0xA0 SHL SUB DUP2 AND DUP2 EQ PUSH2 0x1970 JUMPI PUSH0 DUP1 REVERT JUMPDEST SWAP2 SWAP1 POP JUMP JUMPDEST PUSH0 PUSH1 0x20 DUP3 DUP5 SUB SLT ISZERO PUSH2 0x1985 JUMPI PUSH0 DUP1 REVERT JUMPDEST PUSH2 0x1953 DUP3 PUSH2 0x195A JUMP JUMPDEST PUSH0 DUP2 MLOAD DUP1 DUP5 MSTORE PUSH0 JUMPDEST DUP2 DUP2 LT ISZERO PUSH2 0x19B2 JUMPI PUSH1 0x20 DUP2 DUP6 ADD DUP2 ADD MLOAD DUP7 DUP4 ADD DUP3 ADD MSTORE ADD PUSH2 0x1996 JUMP JUMPDEST POP PUSH0 PUSH1 0x20 DUP3 DUP7 ADD ADD MSTORE PUSH1 0x20 PUSH1 0x1F NOT PUSH1 0x1F DUP4 ADD AND DUP6 ADD ADD SWAP2 POP POP SWAP3 SWAP2 POP POP JUMP JUMPDEST PUSH1 0x20 DUP2 MSTORE PUSH0 PUSH2 0x1953 PUSH1 0x20 DUP4 ADD DUP5 PUSH2 0x198E JUMP JUMPDEST PUSH0 DUP1 PUSH1 0x40 DUP4 DUP6 SUB SLT ISZERO PUSH2 0x19F4 JUMPI PUSH0 DUP1 REVERT JUMPDEST PUSH2 0x19FD DUP4 PUSH2 0x195A JUMP JUMPDEST SWAP5 PUSH1 0x20 SWAP4 SWAP1 SWAP4 ADD CALLDATALOAD SWAP4 POP POP POP JUMP JUMPDEST PUSH0 DUP1 PUSH0 PUSH1 0x60 DUP5 DUP7 SUB SLT ISZERO PUSH2 0x1A1D JUMPI PUSH0 DUP1 REVERT JUMPDEST PUSH2 0x1A26 DUP5 PUSH2 0x195A JUMP JUMPDEST SWAP3 POP PUSH2 0x1A34 PUSH1 0x20 DUP6 ADD PUSH2 0x195A JUMP JUMPDEST SWAP2 POP PUSH1 0x40 DUP5 ADD CALLDATALOAD SWAP1 POP SWAP3 POP SWAP3 POP SWAP3 JUMP JUMPDEST PUSH0 PUSH1 0x20 DUP3 DUP5 SUB SLT ISZERO PUSH2 0x1A54 JUMPI PUSH0 DUP1 REVERT JUMPDEST POP CALLDATALOAD SWAP2 SWAP1 POP JUMP JUMPDEST PUSH0 DUP1 PUSH1 0x40 DUP4 DUP6 SUB SLT ISZERO PUSH2 0x1A6C JUMPI PUSH0 DUP1 REVERT JUMPDEST DUP3 CALLDATALOAD SWAP2 POP PUSH2 0x1A7C PUSH1 0x20 DUP5 ADD PUSH2 0x195A JUMP JUMPDEST SWAP1 POP SWAP3 POP SWAP3 SWAP1 POP JUMP JUMPDEST PUSH1 0xFF PUSH1 0xF8 SHL DUP9 AND DUP2 MSTORE PUSH0 PUSH1 0x20 PUSH1 0xE0 PUSH1 0x20 DUP5 ADD MSTORE PUSH2 0x1AA5 PUSH1 0xE0 DUP5 ADD DUP11 PUSH2 0x198E JUMP JUMPDEST DUP4 DUP2 SUB PUSH1 0x40 DUP6 ADD MSTORE PUSH2 0x1AB7 DUP2 DUP11 PUSH2 0x198E JUMP JUMPDEST PUSH1 0x60 DUP6 ADD DUP10 SWAP1 MSTORE PUSH1 0x1 PUSH1 0x1 PUSH1 0xA0 SHL SUB DUP9 AND PUSH1 0x80 DUP7 ADD MSTORE PUSH1 0xA0 DUP6 ADD DUP8 SWAP1 MSTORE DUP5 DUP2 SUB PUSH1 0xC0 DUP7 ADD MSTORE DUP6 MLOAD DUP1 DUP3 MSTORE PUSH1 0x20 DUP1 DUP9 ADD SWAP4 POP SWAP1 SWAP2 ADD SWAP1 PUSH0 JUMPDEST DUP2 DUP2 LT ISZERO PUSH2 0x1B0A JUMPI DUP4 MLOAD DUP4 MSTORE SWAP3 DUP5 ADD SWAP3 SWAP2 DUP5 ADD SWAP2 PUSH1 0x1 ADD PUSH2 0x1AEE JUMP JUMPDEST POP SWAP1 SWAP13 SWAP12 POP POP POP POP POP POP POP POP POP POP POP POP JUMP JUMPDEST PUSH0 DUP1 PUSH1 0x40 DUP4 DUP6 SUB SLT ISZERO PUSH2 0x1B2D JUMPI PUSH0 DUP1 REVERT JUMPDEST PUSH2 0x1B36 DUP4 PUSH2 0x195A JUMP JUMPDEST SWAP2 POP PUSH1 0x20 DUP4 ADD CALLDATALOAD DUP1 ISZERO ISZERO DUP2 EQ PUSH2 0x1B4A JUMPI PUSH0 DUP1 REVERT JUMPDEST DUP1 SWAP2 POP POP SWAP3 POP SWAP3 SWAP1 POP JUMP JUMPDEST PUSH0 DUP1 PUSH0 DUP1 PUSH0 DUP1 PUSH0 PUSH1 0xE0 DUP9 DUP11 SUB SLT ISZERO PUSH2 0x1B6B JUMPI PUSH0 DUP1 REVERT JUMPDEST PUSH2 0x1B74 DUP9 PUSH2 0x195A JUMP JUMPDEST SWAP7 POP PUSH2 0x1B82 PUSH1 0x20 DUP10 ADD PUSH2 0x195A JUMP JUMPDEST SWAP6 POP PUSH1 0x40 DUP9 ADD CALLDATALOAD SWAP5 POP PUSH1 0x60 DUP9 ADD CALLDATALOAD SWAP4 POP PUSH1 0x80 DUP9 ADD CALLDATALOAD PUSH1 0xFF DUP2 AND DUP2 EQ PUSH2 0x1BA5 JUMPI PUSH0 DUP1 REVERT JUMPDEST SWAP7 SWAP10 SWAP6 SWAP9 POP SWAP4 SWAP7 SWAP3 SWAP6 SWAP5 PUSH1 0xA0 DUP5 ADD CALLDATALOAD SWAP5 POP PUSH1 0xC0 SWAP1 SWAP4 ADD CALLDATALOAD SWAP3 SWAP2 POP POP JUMP JUMPDEST PUSH0 DUP1 PUSH1 0x40 DUP4 DUP6 SUB SLT ISZERO PUSH2 0x1BD3 JUMPI PUSH0 DUP1 REVERT JUMPDEST PUSH2 0x1BDC DUP4 PUSH2 0x195A JUMP JUMPDEST SWAP2 POP PUSH2 0x1A7C PUSH1 0x20 DUP5 ADD PUSH2 0x195A JUMP JUMPDEST PUSH1 0x1 DUP2 DUP2 SHR SWAP1 DUP3 AND DUP1 PUSH2 0x1BFE JUMPI PUSH1 0x7F DUP3 AND SWAP2 POP JUMPDEST PUSH1 0x20 DUP3 LT DUP2 SUB PUSH2 0x1C1C JUMPI PUSH4 0x4E487B71 PUSH1 0xE0 SHL PUSH0 MSTORE PUSH1 0x22 PUSH1 0x4 MSTORE PUSH1 0x24 PUSH0 REVERT JUMPDEST POP SWAP2 SWAP1 POP JUMP JUMPDEST PUSH4 0x4E487B71 PUSH1 0xE0 SHL PUSH0 MSTORE PUSH1 0x11 PUSH1 0x4 MSTORE PUSH1 0x24 PUSH0 REVERT JUMPDEST DUP1 DUP3 ADD DUP1 DUP3 GT ISZERO PUSH2 0x609 JUMPI PUSH2 0x609 PUSH2 0x1C22 JUMP JUMPDEST DUP1 DUP3 MUL DUP2 ISZERO DUP3 DUP3 DIV DUP5 EQ OR PUSH2 0x609 JUMPI PUSH2 0x609 PUSH2 0x1C22 JUMP JUMPDEST PUSH0 DUP3 PUSH2 0x1C7A JUMPI PUSH4 0x4E487B71 PUSH1 0xE0 SHL PUSH0 MSTORE PUSH1 0x12 PUSH1 0x4 MSTORE PUSH1 0x24 PUSH0 REVERT JUMPDEST POP DIV SWAP1 JUMP JUMPDEST DUP2 DUP2 SUB DUP2 DUP2 GT ISZERO PUSH2 0x609 JUMPI PUSH2 0x609 PUSH2 0x1C22 JUMP JUMPDEST PUSH4 0x4E487B71 PUSH1 0xE0 SHL PUSH0 MSTORE PUSH1 0x21 PUSH1 0x4 MSTORE PUSH1 0x24 PUSH0 REVERT INVALID ADDRESS DELEGATECALL DELEGATECALL DUP5 BLOCKHASH 0xC1 0xAD PUSH19 0x1C73A3B5549AA3DB7105F00012DF64020E3A66 0xB6 DUP10 0xC0 0xE7 SIGNEXTEND LOG2 PUSH5 0x6970667358 0x22 SLT KECCAK256 REVERT RETURN NUMBER 0xB4 0xD8 PREVRANDAO SELFBALANCE LOG4 0x4D SWAP16 NUMBER 0x22 TLOAD ADDRESS MSTORE8 PUSH24 0x29DEE34317DE5E12753BDA35B674F2E264736F6C63430008 XOR STOP CALLER EXTCODEHASH 0x2C SWAP14 JUMPI 0xC0 PUSH9 0x687834F0DE942A9BAB 0xB9 0xE5 0xAC 0xAB JUMPI 0xD5 AND 0xD3 BASEFEE EXP EXTCODECOPY AND 0xEE AND GAS TIMESTAMP PUSH20 0x0 "},"methodIdentifiers":{"DEFAULT_ADMIN_ROLE()":"a217fddf","DOMAIN_SEPARATOR()":"3644e515","MAX_TAX_BPS()":"2c597de9","MINTER_ROLE()":"d5391393","PAUSER_ROLE()":"e63ab1e9","TAX_BPS()":"68f4a786","TAX_MANAGER_ROLE()":"967a2a70","TOTAL_SUPPLY()":"902d55a5","TREASURY_ROLE()":"d11a57ec","allowance(address,address)":"dd62ed3e","approve(address,uint256)":"095ea7b3","balanceOf(address)":"70a08231","burn(uint256)":"42966c68","burnFrom(address,uint256)":"79cc6790","burnFromPool(uint256)":"87ed238a","decimals()":"313ce567","domainSeparator()":"f698da25","eip712Domain()":"84b0196e","getRoleAdmin(bytes32)":"248a9ca3","grantRole(bytes32,address)":"2f2ff15d","hasRole(bytes32,address)":"91d14854","isExemptFromTax(address)":"060e7844","mintTokens(address,uint256)":"f0dda65c","name()":"06fdde03","nonces(address)":"7ecebe00","pause()":"8456cb59","paused()":"5c975abb","permit(address,address,uint256,uint256,uint8,bytes32,bytes32)":"d505accf","renounceRole(bytes32,address)":"36568abe","revokeRole(bytes32,address)":"d547741f","setTaxExemption(address,bool)":"b64e3c74","supportsInterface(bytes4)":"01ffc9a7","symbol()":"95d89b41","taxActive()":"d4dc0070","taxBps()":"3eacd2f8","toggleTax()":"10bf6029","totalSupply()":"18160ddd","transfer(address,uint256)":"a9059cbb","transferFrom(address,address,uint256)":"23b872dd","treasuryAddress()":"c5f956af","unpause()":"3f4ba83a","updateTax(uint256)":"cca0feb6","updateTreasury(address)":"7f51bb1f"}}}}}